:102F6000504F53454520494E0D0A004443544F3AB3
:102F700000696E6963696F206465627567206A70B5
:032F80000D0A0037
:102978004100003041012E004100ED0042000605F3
:10298800DC41012C02410019004200030000410013
:10299800020041006100410036004100350041005D
:1029A800A6004100D900C120C103C114C10FC12133
:1029B800C116C119C108C109C10AC106C104C11E95
:1029C800C10CC122C101C10EC11BC11CC11DC11254
:1029D800C115C11AC117C10BC10DC102C118C10768
:0C29E800C111C100C110C11FC105C19385
:072FE600D2B5D2B6C2B7223A
:072FED00C2B5C2B6D2B72243
:072FF400D2B5C2B6D2B7222C
:102D1D00E49000ECF0900130F0AE07EE54F0C454A6
:102D2D000F9000ECF0D39409748094804006E02459
:102D3D0037F080079000ECE02430F0AE07EE540F32
:102D4D00900130F0D39409748094804005E02437CD
:092D5D00F022900130E02430F076
:012D6600224A
:102C3900E49000EBF0A3F0900130F0EFC3946474DA
:102C4900809480400C749C2FFF9000EBE004F0808E
:102C5900EAEFC3940A74809480400C74F62FFF90B5
:102C690000ECE004F080EA900130EFF0FD9000EC18
:0B2C7900E04430F0ED4430900130F0FA
:012C8400222D
:0C2FC800EF540FC454F0FFED540F4FFF06
:012FD40022DA
:0524EC00900134EDF049
:1024F100E4A3F0F9FBFAA3F0AD07EDFC900134E0A1
:10250100FFAE04C3EF9410EE9427401074F02FFF38
:1025110074D83EFE900135E004F080E7C3EF94E803
:10252100EE9403400B74182FFF74FC3EFE0980ECFF
:10253100C3EF9464EE9400400B749C2FFF74FF3E34
:10254100FE0B80ECC3EF940AEE9400400B74F62F5F
:10255100FF74FF3EFE0A80EC900136EFF0900135EA
:10256100E060194430FF900061E0FE04F074EE2E4B
:10257100F582E43400F583EFF0E98003E960194462
:1025810030FF900061E0FE04F074EE2EF582E43439
:1025910000F583EFF0EB8003EB602F4430FF9000F8
:1025A10061E0FE04F074EE2EF582E43400F583EF71
:1025B100F0EA4430FF900061E0FE04F074EE2EF585
:1025C10082E43400F583EFF0801BEA60184430FFA9
:1025D100900061E0FE04F074EE2EF582E43400F523
:1025E10083EFF08000900136E04430FF900061E01D
:0F25F100FE04F074EE2EF582E43400F583EFF073
:0126000022B7
:10000300AE07EEC4540F540FFE6012EF540FFFE41B
:0D001300FDEDC39E5007740A2FFF0D80F411
:0100200022BD
:102EA600EFFD64306028ED64366023ED6439601E02
:102EB6009000EE7402F0A37430F0A37406F0A374CD
:102EC60065F0A3EFF0A37403F07F06122720022D0E
:012ED6006794
:102DAF007F52122DF57F45122DF57F49122DF57F9C
:102DBF004E122DF57F54122DF57F45122DF57F4EB6
:102DCF00122DF57F54122DF57F4F122DF57F3A12EC
:102DDF002DF5900036E04430FF122DF57F0D122DAA
:062DEF00F57F0A022DF53C
:10235C007BFF7A2F7960122E7390007CE0FF122C99
:10236C00399000ECE0900023F0900130E0900024D4
:10237C00F090007DE0FF122C399000ECE0900025ED
:10238C00F0900130E0900026F090007EE0FF122CDF
:10239C00399000ECE0900027F0900130E09000289C
:1023AC00F090007FE0FF122C399000ECE0900029B7
:1023BC00F0900130E090002AF0900080E0FF122CA9
:1023CC00399000ECE090002BF0900130E090002C64
:1023DC00F0900083E0FF900082E0FD122FC8900087
:1023EC0001EFF0E02430F07BFF7A2F796B122E7323
:1023FC00900001E0FF122DF57F0D122DF57F0A12D2
:10240C002DF5900084E0FE540F900035F0EE54F062
:10241C009000DAF0E0C4540FF0900008E0FF640282
:10242C006005EF640A7015900085E0FE54F0900191
:10243C002FF0E0C4540FF0EE540F8004900085E0B0
:10244C0090012DF0900086E0900062F0900087E003
:10245C00FF122C399000ECE0900037F0900130E046
:10246C00900038F0900088E0FF122C399000ECE0DE
:10247C00900039F0900130E090003AF0900089E043
:10248C00FF122C399000ECE090003BF0900130E012
:10249C0090003CF090008AE0FF122C399000ECE0A8
:1024AC0090003DF0900130E090003EF090008BE009
:1024BC00FF122C399000ECE090003FF0900130E0DE
:1024CC00900040F0E4FF122B8D900003E4F0A37415
:1024DC0096F0C220E4900063F090012C740AF02274
:101C2F00C2CFE4F5CDF5CCD2CAD2AF122F9DE58944
:101C3F0054F04401F589C28DE4F58CF58AD28CC23B
:101C4F0006D282D286C297C283900033741CF0D220
:101C5F0090A21392879000007430F0FF122EA6C24C
:101C6F0011C220C212E4900036F0C20E900063F051
:101C7F0090012CF0900003F0A37496F0E49000A66E
:101C8F00F0900131F0A3F0900131E0FEA3E0FFC32B
:101C9F00943CEE9400501C74EE2FF58274003EF5C8
:101CAF0083E4F0900132E004F070DC900131E00445
:101CBF00F080D4C207D2007BFF7A2F7971122E7376
:101CCF00122FD575A0FF90001BE5A0F0D290120047
:101CDF0026208D03021D9EC28D900003E07002A38B
:101CEF00E06027900004E024FFF0900003E034FF51
:101CFF00F03010167F05122FDEC210900003E4F0B3
:101D0F00A37496F09000637401F09000A6E0600257
:101D1F0014F0900033E014F0E070742008062009EE
:101D2F0003300A58200655D20690001B7430F0304D
:101D3F000805E004F0D21B30090B90001BE004F003
:101D4F00E004F0D21C300A1190001BE004F0E00414
:101D5F00F0E004F0E004F0D21D9000EE7402F0A366
:101D6F007430F0A37406F0A37441F090001BE09060
:101D7F0000F2F0A37403F07F061227209000337453
:101D8F001CF0200306D282D2038004C282C20390C9
:101D9F00012CE0FF640C7003021ED4EF641E70036D
:101DAF00021ED4301503021ED430B303021ED41208
:101DBF0028569000F1E0644F6003021E727F3D12BF
:101DCF002EA6900061E0FF64057003021ED4EF643D
:101DDF00106003021ED47F53122DF57F49122DF58B
:101DEF007F4E122DF57F20122DF57F54122DF57F8A
:101DFF0041122DF57F52122DF57F4A122DF57F4599
:101E0F00122DF57F54122DF57F41122DF57F2012E3
:101E1F002DF57F50122DF57F43122DF57F3A122DA0
:101E2F00F5E4900131F0A3F0900131E0FEA3E0FF63
:101E3F00C39410EE9400501F74EE2FF58274003E81
:101E4F00F583E0FF122DF5900132E004F070D99088
:101E5F000131E004F080D17F0D122DF57F0A122D94
:101E6F00F580629000F1E0FFB46F06C20EC20480ED
:101E7F0023EFB44604D212804CEF64457024C21293
:101E8F00C21BC21CC21DC20EC204C297C206C20828
:101E9F00C209C20AC20FC216C221C222C20CC21E7E
:101EAF008023EFB43F1F9000EE7402F0A37430F064
:101EBF00A37406F0A37465F0A37440F0A37403F049
:101ECF007F061227209000067409F0A374C4F0C295
:101EDF0018122FF430912F122FF430912930911CBA
:101EEF00201819900007E024FFF0900006E034FF5F
:101EFF00F0E07002A3E070E5D21880E130180720FF
:101F0F000F04D297D2089000067409F0A374C4F09E
:101F1F00C218122FED30912F122FED3091293091E1
:101F2F001C201819900007E024FFF0900006E03401
:101F3F00FFF0E07002A3E070E5D21880E1301807DF
:101F4F00201604D297D2099000067409F0A374C426
:101F5F00F0C218122FE630912F122FE63091293050
:101F6F00911C201819900007E024FFF0900006E064
:101F7F0034FFF0E07002A3E070E5D21880E1301872
:101F8F0007202104D297D20A300F1030160D3021BE
:101F9F000AC297C206C208C209C20A200403021C61
:101FAF00D2122FF4309127201E24201B21D21E90F5
:101FBF0000EE7402F0A37430F0A37406F0A3745310
:101FCF00F0A37431F0A37403F07F06122720122FB1
:101FDF00ED309127200C24201C21D20C9000EE74A0
:101FEF0002F0A37430F0A37406F0A37453F0A3743B
:101FFF0032F0A37403F07F06122720122FE62091F0
:10200F0003021CD2302203021CD2301D03021CD249
:10201F00D2229000EE7402F0A37430F0A37406F095
:10202F00A37453F0A37433F0A37403F07F06122745
:04203F0020021CD28D
:102F9D00C20D759850438780438920758840758D83
:092FAD00F4758BF4D28ED2AC2233
:052F3400900134EFF0F4
:102F3900E4A3F0900134E0FFA3E0FEC39F501774AF
:102F4900A72EF582E43400F583E0FF122FDE90010D
:062F590035E004F080DD0C
:012F5F00224F
:082FDE008F99D20D200DFD2298
:03002300022601B1
:0B260100C0E0C083C082C0D075D008CC
:10260C002098030226E8AF99C298900063E014600A
:10261C002314604714605F1460771470030226CC97
:10262C00240560030226E3EF640660030226E8D269
:10263C00100226E8EF640260030226E8900019F00D
:10264C00C220E0FE04F074742EF582E43400F583AD
:10265C00EFF09000637402F00226E8900019E0FE9F
:10266C0004F074742EF582E43400F583EFF09000DE
:10267C00637403F08066900019E0FE04F074742E0D
:10268C00F582E43400F583EFF09000637404F0807D
:10269C004B900019E0FE04F074742EF582E43400C3
:1026AC00F583EFF0900019E0D3943274809480405D
:1026BC00028024EF640370249000637405F0801C86
:1026CC00900019E0FE04F074742EF582E43400F5E9
:1026DC0083EFF0D2208005900063E4F0309904C2BF
:0326EC0099C20D83
:0926EF00D0D0D082D083D0E032BB
:1027BE002F2A2D2D2D2D2D2D2D2D2D2D2D2D2D2D3C
:1027CE002D2D2D2D2D2D2D2D2D2D2D2D2D2D2D2D2B
:1027DE002D2D2D2D2D2D2D2D2D2A2F0D0A0045722F
:1027EE00726F723A200053454C2E20534543544F7E
:1027FE00520D0A005254412E205752204E2E0D0AD1
:10280E00005254412E205244204E2E0D0A005349A0
:10281E004E205254412057520D0A0053494E205219
:10282E0054412052440D0A00475241424143494F00
:10283E004E2E0D0A005441524A45544120524554E1
:08284E0049524144410D0A000A
:102F8300E4FFEFD3940774809480500D0000000099
:092F93000000000000000F80E9BD
:012F9C002212
:022DF500AE0727
:102DF700C290122F83AD06EE5401FE7004C290807C
:102E070002D290122F837C01ECD3940774809480B4
:102E17005015EDC313FD5401FE7004C2908002D219
:102E270090122F830C80E1D290122F83122F8302EE
:022E37002F83E7
:022E3900AB07E5
:102E3B00AA03EAC4540FFAD3940974809480EA501D
:102E4B0004443080022437FF122DF5AF03AA07EAA2
:102E5B00540FFAD3940974809480EA500444308060
:072E6B00022437FF122DF5D0
:012E7200223D
:0B2E7300900135EBF0A3EAF0A3E9F0BA
:102E7E00E4A3F0F0900135E0FBA3E0FAA3E0F9A3A0
:102E8E00E0F5827583001228E8FF600B122DF59095
:072E9E000138E004F080DDC3
:012EA500220A
:092FD5007BFF7A2779BE022E73FE
:102A9100900134EFF07BFF7A2779EC122E739001CD
:102AA10034E070087BFF7A2779F4805E900134E08E
:102AB100640170087BFF7A287902804E900134E02E
:102AC100640370087BFF7A28790F803E900134E01F
:102AD100640270087BFF7A28791C802E900134E013
:102AE100640470087BFF7A287929801E900134E004
:102AF100640570087BFF7A287936800E900134E0F6
:0E2B0100640670097BFF7A287943122E732236
:102D67009000A77402F0E4A3F0A37402F0A37432F6
:102D7700F0A37430F0A37403F0A37401F07F07127B
:102D87002F34E4900063F090012C7404F09000035A
:102D9700E4F0A37496F0E4900034F0900032F090E1
:082DA700002FF0900022F02241
:102F06009000A77402F0E4A3F0A37402F0A3743156
:102F1600F0A314F0A37403F0A314F07F07122F3468
:0E2F2600E4900063F0900003F0A37496F02294
:102ED7009000A77402F0E4A3F0A37402F0A3743582
:102EE700F0A37431F0A37403F0A37407F0FF122F5B
:0F2EF70034E4900063F0900003F0A37496F0228F
:102C85009000A77402F0E4A3F0A37409F0A37435CF
:102C9500F0A37432F0A37401F0A37433F0A3745657
:102CA500F0A37430F0A37470F0A37434F0A37472BD
:102CB500F0A37403F0A3746DF07F0E122F34E4902B
:0C2CC5000063F0900003F0A37496F0226E
:102CD1009000A77402F0E4A3F0A37409F0A3743583
:102CE100F0A37432F0A37402F0A37441F0A37463EF
:102CF100F0A37453F0A37445F0A37476F0A3745059
:102D0100F0A37403F0A3741FF07F0E122F34E4902C
:0C2D11000063F0900003F0A37496F02221
:102B8D00E4FE9000A77402F0E4A3F0A37404F0A394
:102B9D007435F0A37433F0A37401F0A3EFF0A374B4
:102BAD0003F0E4FFEFC3940874809480501074A771
:102BBD002FF582E43400F583E06EFE0F80E6900081
:102BCD00AFEEF07F09122F34E4900063F090000314
:052BDD00F0A37496F066
:012BE20022D0
:102BE300E4FE9000A77402F0E4A3F0A37404F0A33E
:102BF3007435F0A37433F0A37402F0A3EFF0A3745D
:102C030003F0E4FFEFC3940874809480501074A71A
:102C13002FF582E43400F583E06EFE0F80E690002A
:102C2300AFEEF07F09122F34E4900063F0900003BD
:052C3300F0A37496F00F
:012C38002279
:102B0F00E4FE9000A77402F0E4A3F0A37414F0A302
:102B1F007435F0A314F0A37401F0A3EFF0E4FFEF0A
:102B2F00C3941074809480501B74DB2FF582E434AF
:102B3F0000F583E0FD74AE2FF582E43400F583EDEC
:102B4F00F00F80DB9000BE7403F0E4FFEFC3941826
:102B5F0074809480501074A72FF582E43400F583AD
:102B6F00E06EFE0F80E69000BFEEF07F19122F345B
:0D2B7F00E4900063F0900003F0A37496F062
:012B8C002226
:0100210022BC
:102FB600E4FFFE1200210FBF00010EEF642D4E70DC
:012FC600F218
:012FC70022E7
:10285600E4900061F0FFEFC3943C748094805010C4
:1028660074EE2FF582E43400F58374FFF00F80E6F2
:1028760020B369C286E4FEC2B2FFEFC3941E748021
:102886009480505630B40330B3FA74EE2FF582E4D8
:102896003400F583E5A0F020B436EE703320B33073
:1028A60074EE2FF582E43400F583E5A0F090006124
:1028B600E004F0E4FDFC20B417EE70140DBD000139
:1028C6000CD3ED9430EC947540EC7E017F1F80E6CE
:1028D60030B3027F1FD2B20F80A0D286D2B275A0CB
:0128E600FFF2
:0128E70022CE
:102043005441524A455441204C4F434B0D0A0045DD
:1020530052524F5220434152440D0A0053494E20DD
:102063005254412E2053454C4543540D0A004552CA
:10207300524F52204B45590D0A0053494E2052549A
:10208300412E204B45590D0A007469706F20646519
:10209300207461726A6574613A0049445F434C4934
:1020A300454E54453A00434F445F5041524B3A002A
:1020B300454E204D544F2E20454A4543540D0A00AA
:1020C3004552524F5220434F442E205041524B0D04
:1020D3000A0053494E205254412E20524420423587
:1020E3000D0A0052442053363A00504F53454520C1
:1020F300494E0D0A004443544F3A004D454E535543
:10210300414C204E4F20504F53454520494E204FC0
:102113005043494F4E2052454E4F5641520D0A00EF
:1021230053494E20494E475245534F0D0A005349D8
:102133004E205254412E2052442042360D0A004C68
:102143004559454E444F2042340D0A004B45593200
:102153000D0A0053494E205254412E20524420422E
:10216300340D0A005244204C50520D0A00504C4189
:1021730043413A00436F6D756E69636163696F6EC6
:102183002070746F20706172616C656C6F640A00FB
:10219300455850554C53412054494D45204F5554B3
:1021A3000D0A000D0A455850554C53410D0A000DB8
:1021B3000A50433A20636F6D756E69636163696F9B
:1021C3006E2070746F20706172616C656C6F206536
:1021D3006A65637420636F6E206665636861206F50
:1021E30075740D0A000D0A4461746F73204D462007
:1021F3000D0A000D0A57525F4D46205345515F5259
:1022030054415F5354415455535F57525F42363ADA
:10221300200D0A000D0A57525F4D46205345515F6A
:102223005254415F57525F32204D4446435F5354EB
:10223300445F505244445F415F5254434E3A200D31
:102243000A0057522056454E43494D49454E544F77
:102253003A5345515F5254415F5354415455535F70
:1022630057525F4235200057522056454E43494D41
:1022730049454E544F2032205345515F5254415FDC
:102283005354415455535F57525F42363A00636D7E
:1022930064206F6B205345515F5254415F53544147
:1022A3005455535F57525F42370D0A0047726162BC
:1022B300616E646F2E2E2E0D0A00436F6D70617276
:1022C300616E646F2E2E2E0D0A0047524142414328
:1022D300494F4E204F4B200D0A0044494645524575
:1022E3004E434941200D0A005265706172616E646C
:1022F3006F204D4620706572646964612E2E2E0D29
:102303000A0076616C6964612070617373776F7220
:1023130064205345515F52455452595F4B45590D03
:102323000A0045525252204B45520D0A0043415276
:10233300445F4241434B55503A200D0A00455252E7
:102343004F52204E4F204553204C41204D49534D71
:092353004120434152440D0A00EF
:1029F40041013A0041013B0041013C0041013D00DD
:1026F800A3F0900022E09000F4F090002FE090000A
:10270800F5F0900032E09000F6F0900034E0900090
:08271800F7F0A37403F07F0B3E
:05272000900134EFF010
:10272500D2B4C286C219C2B2900136122921000064
:10273500C35030B33F20193C900136E0FCA3E0FDC7
:10274500A3E0FEA3E0FFEF24FFFFEE34FFFEED3430
:10275500FFFDEC34FFFC900136122915900136E09F
:10276500FCA3E0FDA3E0FEA3E0FFEC4D4E4F70C2DD
:10277500D21980BE20193320B330E4900135F09092
:102785000134E0FFA3E0FEC39F501F74EE2EF582D7
:10279500E43400F583E0F5A0C2B4122FB6D2B4122A
:1027A5002FB6900135E004F080D575A0FFD2B2D2E6
:0827B500B4D286122FB6A2195E
:0127BD0022F9
:1000260090012CE012295200880002220100AF0242
:1000360000C7030D8F0401E50500FB060225080530
:100046004809085A0A0E790C16140F1745100B9C0E
:10005600190DDB1E16E7200DC02419842519B226BA
:100066001A272719E32D15802E0C5D311547331AF3
:100076006B341AAF3515B436188A371BE5380000CD
:100086001C2E900003E07004A3E0640160062020AB
:1000960003021C2E90012C7402F0E4900063F09091
:1000A6000003F0A37414021BAD900003E07004A3D8
:1000B600E064016003021C2E90012C7403F0022FF1
:1000C6000630201FC220900079E0B459137BFF7AD6
:1000D600207943122E73122ED790012C7406F0222B
:1000E600020DAC900003E07004A3E064016003021B
:1000F6001C2E020DAC2020030201D3C220900079F1
:10010600E064596003021BBEA3E0900022F0900059
:100116007BE090002FF090007CE0900032F09000A1
:100126007DE0900034F07F43122DF57F41122DF5CE
:100136007F52122DF57F44122DF57F3A122DF57F51
:1001460020122DF590007AE0FF122D1D9000ECE0B4
:10015600FF122DF5900130E0FF122DF57F20122DB4
:10016600F590007BE0FF122D1D9000ECE0FF122DB4
:10017600F5900130E0FF122DF57F20122DF590004D
:100186007CE0FF122D1D9000ECE0FF122DF5900192
:1001960030E0FF122DF57F20122DF590007DE0FF57
:1001A600122D1D9000ECE0FF122DF5900130E0FFBE
:1001B600122DF57F20122DF57F0D122DF57F0A12D7
:1001C6002DF5122C8590012C7405021BAD900003B1
:1001D600E07004A3E064016003021C2E021BD7300A
:1001E600201DC22090007AE0B4590C7F01122B8D9D
:1001F60090012C7408F0227BFF7A2079718015908B
:100206000003E07004A3E064016003021C2E7BFF80
:100216007A20797D122E737F31021BE2D29722203B
:10022600200302052BC22090007BE0645960030284
:10023600051D7BFF7A20798C122E7390007CE0FFDF
:10024600900008F0122D1D9000ECE0FF122DF590A5
:100256000130E0FF122DF57F20122DF57F0D122DB6
:10026600F57F0A122DF57BFF7A20799D122E739069
:10027600007DE0FF90001AF0122D1D9000ECE0FFCB
:10028600122DF5900130E0FF122DF57F20122DF58D
:100296007F0D122DF57F0A122DF57BFF7A2079A9A5
:1002A600122E7390007FE0FF900005F0122D1D9036
:1002B60000ECE0FF122DF5900130E0FF122DF57FE6
:1002C60020122DF57F0D122DF57F0A122DF5E490E3
:1002D6000133F0900133E0FFC39410748094805092
:1002E60045E0FE247CF582E43400F583E0FD7441AC
:1002F6002EF582E43400F583EDF0747C2FF582E46C
:100306003400F583E0FF122D1D9000ECE0FF122D66
:10031600F5900130E0FF122DF57F20122DF59001AA
:1003260033E004F080AD7F0D122DF57F0A122DF516
:1003360090012EE0FF90001AE0FEB5070320072289
:10034600EEB5070C9000EDE0FF900005E06F60123F
:1003560090012EE0600302050F9000EDE0600302BD
:10036600050F900008E0FF7E006401600FEF641047
:10037600600AEF64026005EF6405703820042720E8
:100386001224EF64104E7004D2028002C202900161
:100396002C7409F090007B74FFF0C22090012B743E
:1003A60002F0FF022B8D7BFF7A2079B3122E737F2A
:1003B60039021BE2900008E06406702C20040D2030
:1003C6000E0AC20ED20FC216C221D2049000EE74DB
:1003D60002F0A37430F0A3740BF0A37454F0A3746A
:1003E6003AF0A3743102048E900008E06407702C82
:1003F60020040D200E0AC20EC20FC216C221D2045C
:100406009000EE7402F0A37430F0A3740BF0A374A2
:1004160054F0A3743AF0A3743202048E900008E0FC
:100426006408703620040D200E0AC20ED20FD216B2
:10043600D221D2049000EE7402F0A37430F0A374BB
:100446000BF0A37454F0A3743AF074331226F83008
:1004560019397F071227200204C9900008E064AA10
:10046600702B200E28C20FC216C221C204D20E90D3
:1004760000EE7402F0A37430F0A3740BF0A374546E
:10048600F0A3743AF0A374301226F980369000086F
:10049600E0640C7052200E4F20043E20123BC20F27
:1004A600C216C221C204C20E9000EE7402F0A374FA
:1004B60030F0A3740BF0A37454F0A3743AF07444B0
:1004C6001226F890012C740CF0E4900063F0900072
:1004D600037404F0A374B0F0227BFF7A2079B31280
:1004E6002E737F39021BE2900008E0FF122D1D904B
:1004F60000ECE0FF122DF5900130E0FF122DF57FA4
:1005060020122DF57F3B021BE27BFF7A2079C31276
:100516002E737F38021BE27BFF7A2079D5122E7369
:100526007F32021BE2900003E07004A3E0640160E6
:1005360003021C2E7BFF7A2079D5122E737F32029E
:100546001BE220200302083DC22090007BE0645994
:1005560060030208357BFF7A2079E6122E73E49059
:100566000133F0900133E0FFC394107480948050FF
:1005760030E0FE247CF582E43400F583E0FD74511E
:100586002EF582E43400F583EDF074512FF582E404
:100596003400F583E0FF122E39900133E004F08039
:1005A600C27F0D122DF57F0A122DF5300E549000E4
:1005B60086E070499000EE7402F0A37430F0A374E4
:1005C60008F0A37455F0900022E09000F2F090003D
:1005D6002FE09000F3F0900032E09000F4F09000ED
:1005E60034E09000F5F0A37403F09000617409F014
:1005F600FF12272090012C740CF0020E767F3A022F
:100606000837900086E0640160030207897BFF7A61
:100616002079ED122E7390007CE0FF122C399000A9
:10062600ECE0900023F0900130E0900024F0900080
:100636007DE0FF122C399000ECE0900025F090014F
:1006460030E0900026F090007EE0FF122C399000FA
:10065600ECE0900027F0900130E0900028F0900048
:100666007FE0FF122C399000ECE0900029F0900119
:1006760030E090002AF0900080E0FF122C399000C4
:10068600ECE090002BF0900130E090002CF0900010
:1006960083E0FF900082E0FD122FC8900001EFF08A
:1006A600E02430F07BFF7A2079F8122E7390000157
:1006B600E0FF122DF57F0D122DF57F0A122DF59014
:1006C6000084E0FE540F900035F0EE54F09000DA0E
:1006D600F0E0C4540FF0900008E0FF64026005EFFC
:1006E600640A7015900085E0FE54F090012FF0E04A
:1006F600C4540FF0EE540F8004900085E090012D55
:10070600F0900086E0900062F0900087E0FF122CE7
:10071600399000ECE0900037F0900130E09000381E
:10072600F0900088E0FF122C399000ECE090003940
:10073600F0900130E090003AF0900089E0FF122C32
:10074600399000ECE090003BF0900130E090003CE6
:10075600F090008AE0FF122C399000ECE090003D0A
:10076600F0900130E090003EF090008BE0FF122CFC
:10077600399000ECE090003FF0900130E0900040AE
:10078600020817900086E0640260030208269000C3
:1007960008E0FF64026008EF640560030208267B38
:1007A600FF7A2079FE122E739000237430F0A3F0A6
:1007B600A3F0A3F0A3F0A3F0A3F0A3F0A3F0A3F09B
:1007C600900001F0900084E0FE540F900035F0EEAA
:1007D60054F09000DAF0E0C4540FF0900085E0FE8B
:1007E60054F090012FF0E0C4540FF0EE540F900136
:1007F6002DF0900086E0900062F09000377430F0A3
:10080600A3F0A3F0A3F0A3F0A3F0A3F0A3F0A3F04A
:10081600A3F0E4FF122B8D90012C740AF0020E76E1
:100826007BFF7A217923122E7312235C020E767FC8
:1008360035122EA6020E76900003E07004A3E06443
:10084600016003021C2E7BFF7A217931122E737F01
:1008560032021BE220200B900008E06402600302D3
:100866000B7F7BFF7A217942122E7390007BE06426
:1008760059600B900008E064026003020B77C22007
:100886009000EE7402F0A37430F09000F1744CF016
:100896009000617404F0900008E0FF64026005EFC8
:1008A6006405700F90002FE0FF900022E0FD1224F7
:1008B600EC803DE4900133F0900133E0FF247CF5B9
:1008C60082E43400F583E06027747C2FF582E434FB
:1008D60000F583E0FF900061E0FE04F074EE2EF573
:1008E60082E43400F583EFF0900133E004F080C831
:1008F600900061E0FF04F074EE2FF582E43400F519
:1009060083743AF0E4900133F0900133E0FFC3942E
:100916000A74809480502774232FF582E43400F5FE
:1009260083E0FF900061E0FE04F074EE2EF582E4B1
:100936003400F583EFF0900133E004F080CB9000B3
:1009460061E0FF04F074EE2FF582E43400F5837461
:100956003AF0900035E0FF7E00700C900061E0FDFB
:1009660004F074EE2D8060EF64014E701690006105
:10097600E0FF04F074EE2FF582E43400F583744D45
:10098600F0804E900035E0FF7E0064027016900005
:1009960061E0FD04F074EE2DF582E43400F5837415
:1009A60042F0802DEF64034E9000617013E0FF0467
:1009B600F074EE2FF582E43400F5837454F0801160
:1009C600E0FF04F074EE2FF582E43400F5837443FF
:1009D600F0900061E0FF04F074EE2FF582E434003D
:1009E600F583743AF0900001E0FF900061E0FE04A8
:1009F600F074EE2EF582E43400F583EFF09000619A
:100A0600E0FF04F074EE2FF582E43400F583743AC7
:100A1600F0E4900133F0900133E0FFC3940A748050
:100A26009480502774372FF582E43400F583E0FF75
:100A3600900061E0FE04F074EE2EF582E43400F5D9
:100A460083EFF0900133E004F080CB900061E0FF8B
:100A560004F074EE2FF582E43400F583743AF090D6
:100A66000008E0FFFD7C0064106019EF2430FF9061
:100A76000061E0FE04F074EE2EF582E43400F583A6
:100A8600EFF08014900061E0FF04F074EE2FF58221
:100A9600E43400F5837450F0900061E0FF04F074D4
:100AA600EE2FF582E43400F583743AF0300029ED38
:100AB60064024C6023900008E0FF640A601AEF6449
:100AC6000F60157BFF7A21794F122E73122CD1906D
:100AD600012C7419F0020B7C900061E0FF04F074A5
:100AE600EE2FF582E43400F5837420F0900061E087
:100AF600FF04F074EE2FF582E43400F583743AF0C7
:100B0600900061E0FF04F074EE2FF582E43400F506
:100B1600837403F0900061E09000F0F0E4900133FC
:100B2600F0900061E0FF900133E0FEC39F50177420
:100B3600EE2EF582E43400F583E0FF122DF59001E8
:100B460033E004F080DB7F0D122DF57F0A122DF5C0
:100B5600900061E0FF122720301908900061E0FF45
:100B660012272090012C740CF09000A67448F08097
:100B7600057F35122EA6020E76900003E07004A3C0
:100B8600E064016003021C2E7BFF7A217956122E47
:100B9600737F32021BE2900003E07004A3E064015D
:100BA6006006202003021C2E30201E90007AE0B43E
:100BB60059177BFF7A217967122E73C220E4FF1240
:100BC6002BE390012C7431F022900061E0FF04F0D9
:100BD60074EE2FF582E43400F5837420F090006102
:100BE600E0FF04F074EE2FF582E43400F583743AE6
:100BF600F0900061E0FF04F074EE2FF582E434001B
:100C0600F5837403F0900061E09000F0F0E4900149
:100C160033F0900061E0FF900133E0FEC39F501770
:100C260074EE2EF582E43400F583E0FF122DF59084
:100C36000133E004F080DB7F0D122DF57F0A122DC3
:100C4600F5900061E0FF122720301908900061E05E
:100C5600FF122720020D88900003E07004A3E064D1
:100C6600016006202003021C2E30207690007BE0D7
:100C76006459706E7BFF7A217970122E73C220E45C
:100C8600900133F0900133E0247CF582E43400F5E2
:100C960083E0603A900133E0FF247CF582E434007F
:100CA600F583E0FE900061E0FD04F074EE2DF58220
:100CB600E43400F583EEF0747C2FF582E43400F51D
:100CC60083E0FF122DF5900133E004F080B690002A
:100CD6008BE09000D9F07F0D122DF57F0A122DF5CD
:100CE6008014900061E0FF04F074EE2FF582E43486
:100CF60000F5837420F0900061E0FF04F074EE2F9D
:100D0600F582E43400F583743AF0900061E0FF0464
:100D1600F074EE2FF582E43400F5837403F090004E
:100D260061E09000F0F0122FD57BFF7A21797712DF
:100D36002E73E4900133F0900061E0FF900133E000
:100D4600FEC39F501774EE2EF582E43400F583E05F
:100D5600FF122DF5900133E004F080DB7F0D122D9C
:100D6600F57F0A122DF5122FD5900061E0FF1227AC
:100D760020301908900061E0FF1227209000A67429
:100D860048F090012C740CF022900003E07004A34C
:100D9600E064016006202003021C2E900003E4F0AC
:100DA600A37496F0C22090012C7402F0E4900063C4
:100DB600F0900003F0A37414F022900003E0700496
:100DC600A3E064016003021C2E122F0690012C740E
:100DD6001EF00219DE900003E07004A3E0640160D7
:100DE60006202003021C2E202003020E719000779D
:100DF600E06450707620B3681228569000F1E0B493
:100E06003F219000EE7402F0A37430F0A37406F054
:100E1600A3743FF0A37406F0A37403F07F061227B1
:100E260020803D9000F1E0FFB46F06C20EC2048040
:100E360023EFB44604D2128027EF64457022C21213
:100E4600C21BC21CC21DC20EC204C297C206C20881
:100E5600C209C20AC20FC216C221C222C20CC21ED7
:100E6600122F0690012C741EF08005E490012CF0E0
:100E76000219DE9000A6E0640170117F41122EA6D1
:100E86007BFF7A217993122E7302153C30B303024D
:100E9600153C1228569000EEE06406700C90006136
:100EA600E0640170049000A6F09000F1E0644F60E9
:100EB6000302130D9000A6F0900061E064057078BF
:100EC6003004047F3980027F3D122EA67F50122DFA
:100ED600F57F43122DF57F3A122DF5E4900133F09C
:100EE600900133E0FFC3940574809480501774EE2C
:100EF6002FF582E43400F583E0FF122DF5900133DF
:100F0600E004F080DB7BFF7A2179A6122E73E49051
:100F16000133F0900133E0FFC3943C748094804029
:100F26000302153C74EE2FF582E43400F583E4F0F9
:100F3600900133E004F080DB900061E0C39410740C
:100F460080948050030213087BFF7A2179B2122E17
:100F560073122FD5E4900133F0900061E0FF900109
:100F660033E0FEC39F501774EE2EF582E43400F58D
:100F760083E0FF122DF5900133E004F080DB7F0D56
:100F8600122DF57F0A122DF5122FD59000F1E0648F
:100F96004F60030211D69000F3E0FFA3E0FD122F8D
:100FA600C87E00900020EEF0A3EFF0120003900040
:100FB60020E4F0A3EFF09000F5E0FFA3E0FD122F90
:100FC600C87E0090001CEEF0A3EFF0120003900024
:100FD6001CE4F0A3EFF09000F7E0FFA3E0FD122F72
:100FE600C87E0090002DEEF0A3EFF01200039000F3
:100FF6002DE4F0A3EFF09000F9E0FFA3E0FD122F3F
:10100600C87E00900030EEF0A3EFF01200039000CF
:1010160030E4F0A3EFF09000FBE0FFA3E0FD122F19
:10102600C87E0090001EEEF0A3EFF01200037E00D3
:1010360090001EEEF0A3EFF0FD90012DE0440F901E
:10104600005AF0900020A3E090005CF090001CA3F2
:10105600E090005DF090002DA3E090005EF090001F
:1010660030A3E090005FF0A3EDF07BFF7A2179E8F2
:10107600122E73122FD5E4900133F0900133E0FF66
:10108600C39410748094805030E0FE2451F582E4BD
:101096003400F583E0FD74DB2EF582E43400F5833D
:1010A600EDF074DB2FF582E43400F583E0FF122EB9
:1010B60039900133E004F080C27F0D122DF57F0ACE
:1010C600122DF5122FD5E4900133F0900133E0C3D1
:1010D6009410748094805021E0FF2451F582E4340A
:1010E60000F583E0FE74092FF582E43400F583EE03
:1010F600F0900133E004F080D29000037401F0A375
:1011060074F4F0900041E06410601D7BFF7A217951
:10111600F6122E7390012B7402F0122F06C2209045
:10112600012C742EF002153C7BFF7A227917122EC1
:10113600739000417401F0E4900133F0900133E0C4
:10114600FFC39410748094805030E0FE2441F582F1
:10115600E43400F583E0FD74DB2EF582E43400F51B
:1011660083EDF074DB2FF582E43400F583E0FF12A3
:101176002E39900133E004F080C27F0D122DF57FE9
:101186000A122DF5122FD5E4900133F0900133E0C9
:10119600C39410748094805021E0FF2441F582E4CA
:1011A6003400F583E0FE74092FF582E43400F583FC
:1011B600EEF0900133E004F080D2E49000A6F090C7
:1011C600012B04F0122F06C22090012C7436F02257
:1011D6009000F1E0644D60030212FB9000F3E0FF23
:1011E600A3E0FD122FC87E00900020EEF0A3EFF0E2
:1011F600120003900020E4F0A3EFF09000F5E0FF6A
:10120600A3E0FD122FC87E0090001CEEF0A3EFF0C5
:1012160012000390001CE4F0A3EFF09000F7E0FF4B
:10122600A3E0FD122FC87E0090002DEEF0A3EFF094
:101236001200037E0090002DEEF0A3EFF090002048
:10124600A3E0900049F090001CA3E090004AF0A3B0
:10125600EFF0122FD57BFF7A227945122E73E49098
:101266000133F0900133E0FFC394107480948050F2
:1012760030E0FE2441F582E43400F583E0FD74DBC2
:101286002EF582E43400F583EDF074DB2FF582E46D
:101296003400F583E0FF122E39900133E004F0802C
:1012A600C27F0D122DF57F0A122DF5122FD5E4906F
:1012B6000133F0900133E0C3941074809480502180
:1012C600E0FF2441F582E43400F583E0FE74092F43
:1012D600F582E43400F583EEF0900133E004F0800B
:1012E600D290012B7401F0122F06C22090012C74AB
:1012F60033F002153C3004057F390215397F3D0273
:1013060015397F3C0215399000F1E0644D60030207
:101316001446A3E0643A60030214469000A6F090D7
:1013260000F3E0FFA3E0FD122FC87E00900020EE40
:10133600F0A3EFF0120003900020E4F0A3EFF0908A
:1013460000F5E0FFA3E0FD122FC87E0090001CEE22
:10135600F0A3EFF012000390001CE4F0A3EFF0906E
:1013660000F7E0FFA3E0FD122FC87E0090002DEEEF
:10137600F0A3EFF01200037E0090002DEEF0A3EF35
:10138600F0900020A3E0900049F090001CA3E090AC
:10139600004AF0A3EFF0122FD57BFF7A22796A126A
:1013A6002E73E4900133F0900133E0FFC394107480
:1013B6008094805030E0FE2441F582E43400F583C9
:1013C600E0FD74DB2EF582E43400F583EDF074DB8A
:1013D6002FF582E43400F583E0FF122E39900133B5
:1013E600E004F080C27F0D122DF57F0A122DF51252
:1013F6002FD5E4900133F0900133E0C3941074804C
:1014060094805021E0FF2441F582E43400F583E026
:10141600FE74092FF582E43400F583EEF090013373
:10142600E004F080D2122F06C22090012C7433F013
:10143600E4900063F0900003F0A3740AF002153CF8
:101446009000F1E0FFB46F0BE49000A6F0C20EC26C
:10145600048017EF644570219000A6F0C20EC20406
:10146600C297C206C208C209C20AC20FC216C22168
:10147600C222C20CC21E02153CEFB4460AD212E4C6
:101486009000A6F002153CEFB43F13E49000A6F0DE
:10149600122F0690012C740FF0D21A02153C900000
:1014A600F1E06455600302153C9000F3E0640360CC
:1014B6000302153C9000A6F09000F2E0FF7E00C308
:1014C6009436748094804069D3EF94397480948004
:1014D600505FE49000F1F0A3E024D09000DBF090A0
:1014E600012EE09000DCF0E4A3F0900005E090000F
:1014F600DEF0E4A3F09001337405F0900133E0FFD1
:10150600C3941074809480501474DB2FF582E434F5
:1015160000F583E4F0900133E004F080DE90012BC7
:101526007401F0FF122B0F90012C7410F0D215806D
:10153600057F3B122EA6900003E07004A3E0640131
:1015460022900003E07004A3E064016006202003FB
:10155600021C2E302056C220900079E0B45919D2D0
:10156600159000367404F090012B7401F0FF122BD5
:101576000F90012C7410F022807B900003E0700421
:10158600A3E064016006202003021C2E30201DC249
:1015960020900079E0B45912D2159000367404F008
:1015A600122C8590012C7420F022804980509000E6
:1015B60003E07004A3E064016006202003021C2EF1
:1015C60030203BC220900079E0B459297BFF7A2273
:1015D6007991122E739000367404F090012B7401E9
:1015E600F0FF122B0F900003E4F0A37496F0900125
:1015F6002C7437F0227F06122A917F4080077F02E3
:10160600122A917F33122EA6E4900036F022900023
:1016160003E07004A3E064016006202003021C2E90
:101626002020030216D0900079E0645970339001AF
:101636002C740CF0E4900063F090000304F0A374A3
:10164600F4F0201A030216E4C21A9000EE7402F0B7
:10165600A37430F0A37406F0A3743FF0A37406805D
:10166600337F06122A917F40122EA6E4900036F0B0
:10167600900063F0900003F0A37496F09000EE746F
:1016860002301A1CF0A37430F0A37406F0A374653C
:10169600F0A37440F0A37403F07F06122720803E67
:1016A600F0A37430F0A37405F0A37458F0A3740388
:1016B600F07F05122720C212C20EC204C20FC21644
:1016C600C221C222C20CC21E801490012C740CF0DE
:1016D600E4900063F090000304F0A374F4F0C220D9
:1016E60022900003E07004A3E0640160062020035A
:1016F600021C2E30203590007AE0B4592EC2207B91
:10170600FF7A2279AF122E7390012B7402F0FF122A
:101716002B0F90012C7410F0D215C220E4900063B8
:10172600F0900003F0A37496F0801190012B7402E0
:10173600F0E4FF122A9190012C7425F00219DE9034
:101746000003E07004A3E064016006202003021C8D
:101756002E20200302186790007BE0645960030284
:101766001867C2207BFF7A2279BD122E737F521230
:101776002DF57F44122DF57F3A122DF5E4900133B5
:10178600F0900133E0FFC394107480948050177476
:101796007C2FF582E43400F583E0FF122E399001A8
:1017A60033E004F080DB7F0D122DF57F0A122DF554
:1017B600D21FE4900133F0900133E0C3941074809B
:1017C6009480502BE0FF247CF582E43400F583E01E
:1017D600FE74DB2FF582E43400F583E06E6008903A
:1017E60001337410F0C21F900133E004F080C8305A
:1017F6001F4E30150E7F3E122EA6E4900036F0C224
:1018060015800A7F3D122EA6E4900036F07BFF7A03
:101816002279CD122E73E4900133F0900133E0FF6C
:10182600C3943C748094804003021C2E74EE2FF502
:1018360082E43400F583E4F0900133E004F080DBC9
:101846007BFF7A2279DD122E7390012C7425F0E449
:10185600900063F0900003F0A37414F0C220021C01
:101866002130200D90007BE0B44E06C2207F01801F
:10187600052020057F02122A91C22090012C742592
:10188600F0021C21900003E07004A3E064016006EE
:10189600202003021C2E20200302195E90007BE00C
:1018A6006459600302195EC2207BFF7A2279EB122B
:1018B6002E73122FD5E4900133F0900133E0FFC36D
:1018C6009410748094805030E0FE2451F582E43404
:1018D60000F583E0FD74DB2EF582E43400F583ED3C
:1018E600F074DB2FF582E43400F583E0FF122E3925
:1018F600900133E004F080C27F0D122DF57F0A12AD
:101906002DF5E4900133F0900133E0C39410748018
:1019160094805021E0FF2451F582E43400F583E001
:10192600FE74092FF582E43400F583EEF09001335E
:10193600E004F080D2122FD590012B7402F0122F02
:1019460006C22090012C742EF0E4900063F0900003
:1019560003F0A37414F0802330200D90007BE0B4D4
:101966004E06C2207F0180052020057F02122A91A3
:10197600122C85C22090012C7438F0021C21900094
:1019860003E07004A3E064016003021C2E9000369D
:10199600E06003122DAFC22090012C7426F0E49073
:1019A6000063F0900003F0A37405F022900003E0BA
:1019B6007004A3E064016003021C2E900036E06010
:1019C6000D14F0122F0690012C7434F0800A7F0556
:1019D600122A917F33122EA6C220021C21900003E8
:1019E600E07004A3E064016006202003021C2E3090
:1019F600201B900079E0B459147BFF7A23790512F5
:101A06002E73122C8590012C7427F0800F7F0612FE
:101A16002A917F40122EA6E4900036F0C220021CC6
:101A260021900003E07004A3E06401600620200317
:101A3600021C2E30201B90007AE0B4591490012B22
:101A4600E0FF122B0F90012C7410F0D215C22080EB
:101A56000F7BFF7A237925122E7390012C7425F0C3
:101A6600C220021C21900003E07004A3E064016020
:101A760006202003021C2E30201B900079E0B4596A
:101A8600147BFF7A207943122E73122ED790012CE5
:101A96007435F0800F7F06122A917F40122EA6E43D
:101AA600900036F0C220021C21202003021BCBC26C
:101AB60020900079E064596003021BBEA3E0900108
:101AC6003AF090007BE090013BF090007CE09001C2
:101AD6003CF090007DE090013DF07BFF7A23793069
:101AE600122E7390007AE0FF122D1D9000ECE0FF9D
:101AF600122DF5900130E0FF122DF57F20122DF505
:101B060090007BE0FF122D1D9000ECE0FF122DF5FA
:101B1600900130E0FF122DF57F20122DF590007C0C
:101B2600E0FF122D1D9000ECE0FF122DF590013024
:101B3600E0FF122DF57F20122DF590007DE0FF12BB
:101B46002D1D9000ECE0FF122DF5900130E0FF1204
:101B56002DF57F20122DF57F0D122DF57F0A122D02
:101B6600F590013AE0FF900022E06F703E90013B55
:101B7600E0FF90002FE06F703290013CE0FF900094
:101B860032E0B5072690013DE0FF900034E07E008C
:101B9600B507047F0180027F00EF64014E700C12CE
:101BA6002F0690012C742DF0C220227BFF7A237918
:101BB60040122E737F3F80247BFF7A207952122EAB
:101BC600737F3F8017900003E07004A3E064017008
:101BD600577BFF7A20795F122E737F32022EA690F2
:101BE6000003E07004A3E06401600330203A302073
:101BF6001990007AE0B4591290012BE0FF122B0FD6
:101C060090012C7437F0C220800F7BFF7A23792550
:101C1600122E7390012C7438F0C220E4900063F009
:081C2600900003F0A37496F096
:011C2E002293
:03000000022A05CC
:0C2A0500787FE4F6D8FD758124022A4C8D
:1028E800BB010CE58229F582E5833AF583E02250A5
:1028F80006E92582F8E622BBFE06E92582F8E222EF
:0D290800E58229F582E5833AF583E4932208
:0C291500ECF0A3EDF0A3EEF0A3EFF02235
:10292100A8828583F0D083D08212293812293812E7
:102931002938122938E473E493A3C583C5F0C5830C
:10294100C8C582C8F0A3C583C5F0C583C8C582C800
:012951002263
:10295200D083D082F8E4937012740193700DA3A314
:1029620093F8740193F5828883E473740293686028
:06297200EFA3A3A380DF28
:102A1100021C2FE493A3F8E493A34003F68001F290
:102A210008DFF48029E493A3F85407240CC8C333C6
:102A3100C4540F4420C8834004F456800146F6DF95
:102A4100E4800B0102040810204080902978E47E84
:102A5100019360BCA3FF543F30E509541FFEE4938A
:102A6100A360010ECF54C025E060A840B8E493A351
:102A7100FAE493A3F8E493A3C8C582C8CAC583CA7C
:102A8100F0A3C8C582C8CAC583CADFE9DEE780BE34
:012A040000D1
:00000001FF
