:103E6900504F53454520494E0D0A004443544F3A9B
:103E790000696E6963696F206465627567206A709D
:033E89000D0A001F
:1036A4004100003041012E004100ED0042000605BA
:1036B400DC41012C024100190042000300004100DA
:1036C4000200410061004100360041003500410024
:1036D400A6004100D900C120C103C114C10FC121FA
:1036E400C116C119C108C109C10AC106C104C11E5C
:1036F400C10CC122C101C10EC11BC11CC11DC1121B
:10370400C115C11AC117C10BC10DC102C118C1072E
:0E371400C111C100C110C11FC123C105C19365
:073F1700D2B5D2B6C2B722F9
:073F1E00C2B5C2B6D2B72202
:073F2500D2B5C2B6D2B722EB
:103BB400E49000ECF0900130F0AE07EE54F0C45401
:103BC4000F9000ECF0D39409748094804006E024B4
:103BD40037F080079000ECE02430F0AE07EE540F8D
:103BE400900130F0D39409748094804005E0243728
:093BF400F022900130E02430F0D1
:013BFD0022A5
:103AD000E49000EBF0A3F0900130F0EFC394647435
:103AE000809480400C749C2FFF9000EBE004F080E9
:103AF000EAEFC3940A74809480400C74F62FFF9010
:103B000000ECE004F080EA900130EFF0FD9000EC72
:0B3B1000E04430F0ED4430900130F054
:013B1B002287
:0C3EF900EF540FC454F0FFED540F4FFFC6
:013F05002299
:0531A50090015AEDF05D
:1031AA00E4A3F0F9FBFAA3F0AD07EDFC90015AE0B5
:1031BA00FFAE04C3EF9410EE9427401074F02FFF73
:1031CA0074D83EFE90015BE004F080E7C3EF94E818
:1031DA00EE9403400B74182FFF74FC3EFE0980EC3A
:1031EA00C3EF9464EE9400400B749C2FFF74FF3E6F
:1031FA00FE0B80ECC3EF940AEE9400400B74F62F9A
:10320A00FF74FF3EFE0A80EC90015CEFF090015BD8
:10321A00E060194430FF900061E0FE04F074EE2E85
:10322A00F582E43400F583EFF0E98003E96019449C
:10323A0030FF900061E0FE04F074EE2EF582E43473
:10324A0000F583EFF0EB8003EB602F4430FF900032
:10325A0061E0FE04F074EE2EF582E43400F583EFAB
:10326A00F0EA4430FF900061E0FE04F074EE2EF5BF
:10327A0082E43400F583EFF0801BEA60184430FFE3
:10328A00900061E0FE04F074EE2EF582E43400F55D
:10329A0083EFF0800090015CE04430FF900061E031
:0F32AA00FE04F074EE2EF582E43400F583EFF0AD
:0132B90022F2
:10000300AE07EEC4540F540FFE6012EF540FFFE41B
:0D001300FDEDC39E5007740A2FFF0D80F411
:0100200022BD
:103D8B00EFFD64306028ED64366023ED6439601E0E
:103D9B009000EE7402F0A37430F0A37406F0A374D9
:103DAB0065F0A3EFF0A37403F07F061233EA023C35
:013DBB0048BF
:103C90007F52123CD67F45123CD67F49123CD67FDC
:103CA0004E123CD67F54123CD67F45123CD67F4EF6
:103CB000123CD67F54123CD67F4F123CD67F3A122C
:103CC0003CD6900036E04430FF123CD67F0D123CCB
:063CD000D67F0A023CD67B
:102EAD007BFF7A3E7969123D5890007CE0FF123A23
:102EBD00D09000ECE0900023F0900130E0900024E1
:102ECD00F090007DE0FF123AD09000ECE0900025EC
:102EDD00F0900130E0900026F090007EE0FF123A75
:102EED00D09000ECE0900027F0900130E0900028A9
:102EFD00F090007FE0FF123AD09000ECE0900029B6
:102F0D00F0900130E090002AF0900080E0FF123A3E
:102F1D00D09000ECE090002BF0900130E090002C70
:102F2D00F0900083E0FF900082E0FD123EF99000EA
:102F3D0001EFF0E02430F07BFF7A3E7974123D58BA
:102F4D00900001E0FF123CD67F0D123CD67F0A1295
:102F5D003CD6900084E0FE540F900035F0EE54F016
:102F6D009000DAF0E0C4540FF0900008E0FF640226
:102F7D006005EF640A7015900085E0FE54F0900135
:102F8D002FF0E0C4540FF0EE540F8004900085E054
:102F9D0090012DF0900086E0900062F0900087E0A7
:102FAD00FF123AD09000ECE0900037F0900130E045
:102FBD00900038F0900088E0FF123AD09000ECE0DD
:102FCD00900039F0900130E090003AF0900089E0E7
:102FDD00FF123AD09000ECE090003BF0900130E011
:102FED0090003CF090008AE0FF123AD09000ECE0A7
:102FFD0090003DF0900130E090003EF090008BE0AD
:10300D00FF123AD09000ECE090003FF0900130E0DC
:10301D00900040F0E4FF123A24900003E4F0A37412
:10302D0096F0C220E4900063F090012C740AF02217
:102A9000C2CFE4F5CDF5CCD2CAD2AF123EA6E589BD
:102AA00054F04401F589C28DE4F58CF58AD28CC2CC
:102AB00006D282D286C297C283900033741CF0D2B1
:102AC00090A2139287C2239000007430F0FF123D51
:102AD0008BC211C220C212E4900036F0C20E9000E8
:102AE00063F090012CF0900003F0A37496F0E49052
:102AF00000A6F0900152F0A3F0900152E0FEA3E096
:102B0000FFC3943CEE9400501C74EE2FF5827400C9
:102B10003EF583E4F0900153E004F070DC90015244
:102B2000E004F080D4C207D2007BFF7A3E797A12AB
:102B30003D58123F0675A0FF90001BE5A0F0D29013
:102B4000A2139287120026208D03022C08C28D90BA
:102B50000003E07002A3E0602A900004E024FFF08C
:102B6000900003E034FFF03010192023167F051287
:102B70003F0FC210900003E4F0A37496F09000633E
:102B80007401F09000A6E0600214F0900033E014AD
:102B9000F0E07074200806200903300A582006551A
:102BA000D20690001B7430F0300805E004F0D21B10
:102BB00030090B90001BE004F0E004F0D21C300A56
:102BC0001190001BE004F0E004F0E004F0E004F0F9
:102BD000D21D9000EE7402F0A37430F0A37406F0DE
:102BE000A37441F090001BE09000F2F0A37403F096
:102BF0007F061233EA900033741CF0200306D28261
:102C0000D2038004C282C20390012CE0FF640C70E6
:102C100003022D3EEF641E7003022D3E30150302A9
:102C20002D3E30B303022D3E1237379000F1E064A1
:102C30004F6003022CDC7F3D123D8B900061E0FF72
:102C400064057003022D3EEF64106003022D3E7F89
:102C500053123CD67F49123CD67F4E123CD67F2081
:102C6000123CD67F54123CD67F41123CD67F521282
:102C70003CD67F4A123CD67F45123CD67F54123C4C
:102C8000D67F41123CD67F20123CD67F50123CD6D4
:102C90007F43123CD67F3A123CD6E4900152F0A317
:102CA000F0900152E0FEA3E0FFC39410EE940050B8
:102CB0001F74EE2FF58274003EF583E0FF123CD6C0
:102CC000900153E004F070D9900152E004F080D1FB
:102CD0007F0D123CD67F0A123CD680629000F1E054
:102CE000FFB46F06C20EC2048023EFB44604D212B2
:102CF000804CEF64457024C212C21BC21CC21DC2AC
:102D00000EC204C297C206C208C209C20AC20FC2DA
:102D100016C221C222C20CC21E8023EFB43F1F90F4
:102D200000EE7402F0A37430F0A37406F0A374658F
:102D3000F0A37440F0A37403F07F061233EA90000E
:102D4000067409F0A374C4F0C218123F2530912F05
:102D5000123F2530912930911C201819900007E06E
:102D600024FFF0900006E034FFF0E07002A3E07072
:102D7000E5D21880E1301807200F04D297D20890CE
:102D800000067409F0A374C4F0C218123F1E3091FB
:102D90002F123F1E30912930911C201819900007E6
:102DA000E024FFF0900006E034FFF0E07002A3E0C2
:102DB00070E5D21880E1301807201604D297D209A6
:102DC0009000067409F0A374C4F0C218123F1730C3
:102DD000912F123F1730912930911C201819900023
:102DE00007E024FFF0900006E034FFF0E07002A35B
:102DF000E070E5D21880E1301807202104D297D284
:102E00000A300F1030160D30210AC297C206C208D0
:102E1000C209C20A200403022B35123F2530912734
:102E2000201E24201B21D21E9000EE7402F0A374F9
:102E300030F0A37406F0A37453F0A37431F0A374BC
:102E400003F07F061233EA123F1E309127200C2434
:102E5000201C21D20C9000EE7402F0A37430F0A379
:102E60007406F0A37453F0A37432F0A37403F07FDC
:102E7000061233EA123F17209103022B353022034A
:102E8000022B35301D03022B35D2229000EE740246
:102E9000F0A37430F0A37406F0A37453F0A374335A
:0D2EA000F0A37403F07F061233EA022B3515
:103EA600C20D759850438780438920758840758D6B
:093EB600F4758BF4D28ED2AC221B
:053E190090015AEFF0DA
:103E1E00E4A3F090015AE0FFA3E0FEC39F50177495
:103E2E00A72EF582E43400F583E0FF123F0F9001D8
:063E3E005BE004F080DDF2
:013E4400225B
:083F0F008F99D20D200DFD2257
:0300230002303D6B
:0B303D00C0E0C083C082C0D075D00886
:10304800209803023195AF99C298900063E0B407C5
:10305800004003023190903065F828287302307AD6
:103068000230950230BC0230D80230F4023123021B
:10307800313AEF64067005D210023195D223A205C9
:103088009287900019E4F0E02474023162EF640240
:103098006003023195900019F0C220E0FE04F0743C
:1030A800742EF582E43400F583EFF0900063740227
:1030B800F0023195900019E0FE04F074742EF58248
:1030C800E43400F583EFF09000637403F002319567
:1030D800900019E0FE04F074742EF582E43400F5D3
:1030E80083EFF09000637404F0023195900019E0CA
:1030F800FE04F074742EF582E43400F583EFF0904A
:103108000019E0D39432748094804002807AEF648E
:1031180003707A9000637405F08072900019E0FEE5
:1031280004F074742EF582E43400F583EFF0D220B5
:10313800805B900019E0FEC3948074809480503DB9
:10314800EFB43C13D220E004F0E02474F582E434B8
:1031580000F583E4F0803674742EF582E43400F5CB
:1031680083EFF0900019E004F0E02474F582E43471
:1031780000F583E4F09000637406F0801090001965
:10318800E4F0900063F08005900063E4F030990467
:04319800C299C20D09
:09319C00D0D0D082D083D0E03203
:10360C002F2A2D2D2D2D2D2D2D2D2D2D2D2D2D2DDF
:10361C002D2D2D2D2D2D2D2D2D2D2D2D2D2D2D2DCE
:10362C002D2D2D2D2D2D2D2D2D2A2F0D0A004572D2
:10363C00726F723A200053454C2E20534543544F21
:10364C00520D0A005254412E205752204E2E0D0A74
:10365C00005254412E205244204E2E0D0A00534944
:10366C004E205254412057520D0A0053494E2052BD
:10367C0054412052440D0A00475241424143494FA4
:10368C004E2E0D0A005441524A4554412052455485
:08369C0049524144410D0A00AE
:103E8C00E4FFEFD3940774809480500D0000000081
:093E9C000000000000000F80E9A5
:013EA50022FA
:023CD600AE0737
:103CD800C290123E8CAD06EE5401FE7004C2908074
:103CE80002D290123E8C7C01ECD3940774809480AD
:103CF8005015EDC313FD5401FE7004C2908002D22A
:103D080090123E8C0C80E1D290123E8C123E8C02B6
:023D18003E8CDF
:023D1A00AB07F5
:103D1C00AA03EAC4540FFAD3940974809480EA502D
:103D2C0004443080022437FF123CD6AF03AA07EAC2
:103D3C00540FFAD3940974809480EA500444308070
:0C3D4C00022437FF123CD67F20023CD638
:0B3D580090015BEBF0A3EAF0A3E9F0A0
:103D6300E4A3F0F090015BE0FBA3E0FAA3E0F9A386
:103D7300E0F5827583001232D3FF600B123CD690BC
:073D8300015EE004F080DDA9
:013D8A002216
:093F06007BFF7A36790C023D586C
:1038550090015AEFF07BFF7A36793A123D58900184
:103865005AE070087BFF7A367942805E90015AE013
:10387500640170087BFF7A367950804E90015AE0DA
:10388500640370087BFF7A36795D803E90015AE0CB
:10389500640270087BFF7A36796A802E90015AE0BF
:1038A500640470087BFF7A367977801E90015AE0B0
:1038B500640570087BFF7A367984800E90015AE0A2
:0E38C500640670097BFF7A367991123D582215
:0E3BFE0090015AEBF0A3EAF0A3E9F0A3EDF07A
:103C0C00E4A3F090015DE0FFA3E0C39F502490017A
:103C1C005AE0FBA3E0FAA3E0F91232BAFF123D1A04
:103C2C0090015BE475F00112330090015EE004F04A
:0C3C3C0080D17F0D123CD67F0A023CD6DE
:103C48009000A77402F0E4A3F0A37402F0A3743206
:103C5800F0A37430F0A37403F0A37401F07F07128B
:103C68003E19E4900063F090012C7404F090000376
:103C7800E4F0A37496F0E4900034F0900032F090F1
:083C8800002FF0900022F02251
:103DEB009000A77402F0E4A3F0A37402F0A3743163
:103DFB00F0A314F0A37403F0A314F07F07123E1981
:0E3E0B00E4900063F0900003F0A37496F022A0
:103DBC009000A77402F0E4A3F0A37402F0A374358E
:103DCC00F0A37431F0A37403F0A37407F0FF123E58
:0F3DDC0019E4900063F0900003F0A37496F022B6
:103B1C009000A77402F0E4A3F0A37409F0A3743529
:103B2C00F0A37432F0A37401F0A37433F0A37456B1
:103B3C00F0A37430F0A37470F0A37434F0A3747217
:103B4C00F0A37403F0A3746DF07F0E123E19E49091
:0C3B5C000063F0900003F0A37496F022C8
:103B68009000A77402F0E4A3F0A37409F0A37435DD
:103B7800F0A37432F0A37402F0A37441F0A3746349
:103B8800F0A37453F0A37445F0A37476F0A37450B3
:103B9800F0A37403F0A3741FF07F0E123E19E49093
:0C3BA8000063F0900003F0A37496F0227C
:103A2400E4FE9000A77402F0E4A3F0A37404F0A3EE
:103A34007435F0A37433F0A37401F0A3EFF0A3740E
:103A440003F0E4FFEFC3940874809480501074A7CB
:103A54002FF582E43400F583E06EFE0F80E69000DB
:103A6400AFEEF07F09123E19E4900063F09000037A
:053A7400F0A37496F0C0
:013A7900222A
:103A7A00E4FE9000A77402F0E4A3F0A37404F0A398
:103A8A007435F0A37433F0A37402F0A3EFF0A374B7
:103A9A0003F0E4FFEFC3940874809480501074A775
:103AAA002FF582E43400F583E06EFE0F80E6900085
:103ABA00AFEEF07F09123E19E4900063F090000324
:053ACA00F0A37496F06A
:013ACF0022D4
:1038D300E4FE9000A77402F0E4A3F0A37414F0A331
:1038E3007435F0A314F0A37401F0A3EFF0E4FFEF39
:1038F300C3941074809480501B74DB2FF582E434DE
:1039030000F583E0FD74AE2FF582E43400F583ED1A
:10391300F00F80DB9000BE7403F0E4FFEFC3941854
:1039230074809480501074A72FF582E43400F583DB
:10393300E06EFE0F80E69000BFEEF07F19123E1995
:0D394300E4900063F0900003F0A37496F090
:013950002254
:103E4500E4FF1232BAFDC3943074809480400AD3E3
:103E5500ED943974809480400A740129F9E43AFAA2
:033E65000F80DFEC
:013E68002237
:103ED400E4FF1232BA6D600A740129F9E43AFA0F68
:023EE40080F06C
:013EE60022B9
:0100210022BC
:103EE700E4FFFE1200210FBF00010EEF642D4E709C
:013EF700F2D8
:013EF80022A7
:10373700E4900061F0FFEFC3943C748094805010D4
:1037470074EE2FF582E43400F58374FFF00F80E602
:1037570020B369C286E4FEC2B2FFEFC3941E748031
:103767009480505630B40330B3FA74EE2FF582E4E8
:103777003400F583E5A0F020B436EE703320B33083
:1037870074EE2FF582E43400F583E5A0F090006134
:10379700E004F0E4FDFC20B417EE70140DBD000149
:1037A7000CD3ED9430EC947540EC7E017F1F80E6DE
:1037B70030B3027F1FD2B20F80A0D286D2B275A0DB
:0137C700FF02
:0137C80022DE
:10246E005441524A455441204C4F434B0D0A0045AE
:10247E0052524F5220434152440D0A0053494E20AE
:10248E005254412E2053454C4543540D0A0045529B
:10249E00524F52204B45590D0A0053494E2052546B
:1024AE00412E204B45590D0A000D0A7472616D6163
:1024BE002064656C206C6563746F72207461726A3F
:1024CE00657461730D0A000D0A007469706F2064E3
:1024DE0065207461726A6574613A0049445F434CC9
:1024EE0049454E54455F523A0049445F434C494575
:1024FE004E54453A00434F445F5041524B5F523A5F
:10250E0000434F445F5041524B3A00534543544FA2
:10251E0052315F424C4F515545313A2000454E20C5
:10252E004D544F2E20454A4543540D0A0043415207
:10253E00445F434F4D5052415F4443544F0D0A0088
:10254E004552524F5220434F442E205041524B0D74
:10255E000A0053494E205254412E205244204235F7
:10256E000D0A005345515F5254415F726442360D5D
:10257E000A00534543544F52315F424C4F5155451B
:10258E00323A2000504F53454520494E0D0A004423
:10259E0043544F3A004D454E5355414C204E4F201B
:1025AE00504F53454520494E204F5043494F4E20E2
:1025BE0052454E4F5641520D0A0053494E20494E38
:1025CE00475245534F0D0A0053494E205254412E47
:1025DE002052442042360D0A00534543544F523187
:1025EE005F424C4F515545303A20005345515F5292
:1025FE0054415F726442340A004B4559320D0A0051
:10260E0053494E205254412E2052442042340D0A3A
:10261E00005244204C50520D0A00504C4143413A56
:10262E0000436F6D756E69636163696F6E207074C0
:10263E006F20706172616C656C6F640A0045585052
:10264E00554C53412054494D45204F55540D0A00C9
:10265E000D0A455850554C53410D0A000D0A504372
:10266E003A20636F6D756E69636163696F6E20707A
:10267E00746F20706172616C656C6F20656A656342
:10268E007420636F6E206665636861206F75740DCC
:10269E000A000D0A4461746F73204D46200D0A0026
:1026AE000D0A57525F4D46205345515F5254415FBC
:1026BE005354415455535F57525F42363A200D0AD8
:1026CE00000D0A57525F4D46205345515F525441FB
:1026DE005F5354415455535F57525F42365F5065B6
:1026EE0052646944615F5254434E3A200D0A0057BA
:1026FE00522056454E43494D49454E544F3A534547
:10270E00515F5254415F5354415455535F57525F7A
:10271E004235200057522056454E43494D49454EAD
:10272E00544F2032205345515F5254415F53544110
:10273E005455535F57525F42363A00475241424119
:10274E0043494F4E204445204645434841206D6144
:10275E0078696D612064652073616C6964610047FE
:10276E0072616261207469706F2064652074617299
:10277E006A657461207065726469646120706F723D
:10278E0020726F746163696F6E0D0A004772616229
:10279E00616E646F2E2E2E0D0A00436F6D70617286
:1027AE00616E646F2E2E2E0D0A00434152445F451A
:1027BE004A4543545F5752200D0A00434152445F2D
:1027CE00454A454354200D0A004752414241434970
:1027DE004F4E204F4B200D0A004449464552454E60
:1027EE00434941200D0A005265706172616E646F3B
:1027FE00204D4620706572646964612E2E2E0D0A7E
:10280E000076616C6964612070617373776F7264B6
:10281E00205345515F52455452595F4B45590D0A4D
:10282E000045525252204B45520D0A00434152442C
:10283E005F4241434B55503A200D0A004552524FCC
:10284E0052204E4F204553204C41204D49534D416F
:10285E0020434152440D0A000D0A6C6563746F7279
:10286E0020646174616C6F67696320636F642051CB
:10287E0052205345515F51525F574149540D0A0042
:10288E000D0A5152205345515F51525F494E4943F3
:10289E00494F0D0A000D0A7472616D612064656CFA
:1028AE00206C6563746F7220646174616C6F67690C
:1028BE006320636F642051520D0A00204841424943
:1028CE004C49544F205441524A455441532053458C
:1028DE00515F51525F494E4943494F0D0A00636F94
:1028EE0064205345515F51525F505450524C2072E8
:1028FE000A006E756D65726F206465206469676984
:10290E00746F73206465206C61207472616D6172E6
:10291E000A00436172726F007469706F20646520E3
:10292E007665686963756C6F3A20006C6F6E6769C7
:10293E00747564206465206C61207472616D613AF7
:10294E0020006C6F6E67697475642064656C20542A
:10295E0069636B65743A20003A004E756D65726F4F
:10296E002064656C205469636B65743A200046657B
:10297E006368613A00466563686120646520696E2C
:10298E00677265736F3A200043004D003A303A008B
:10299E00303030303030303030303A313A3A005416
:1029AE0072616D612070746F20706172616C656C04
:1029BE006F0D0A20004552524F52206361726163BF
:1029CE00746572657320696E636F6D706C65746F7C
:1029DE00732051520D0A20002054494D45204F5569
:1029EE00542051520D0A0020484142494C49544F3F
:1029FE00205441524A45544153200D0A000D0A45B8
:102A0E005850554C5341207472616E736163636903
:102A1E006F6E2043414E43454C4144410D0A000D1B
:102A2E000A50433A205258206461746F2070746FBC
:102A3E0020706172616C656C6F20515220636F6EF5
:102A4E00206665636861206F75740D0A000D0A4873
:102A5E004142494C49544F204C4543545552412014
:102A6E004445205441524A455441200D0A005245D6
:102A7E00434152474120454C2050415353574F52EA
:022A8E00440002
:1037220041013100410132004101330041013400C5
:04373200410136001B
:1033C300F0900022E09000F4F090002FE09000F5E0
:1033D300F0900032E09000F6F0900034E09000F7B7
:0733E300F0A37403F07F0B5F
:0533EA0090015AEFF014
:1033EF00D2B4C286C219C2B290015C12332200005D
:1033FF00C35030B33F20193C90015CE0FCA3E0FDCB
:10340F00A3E0FEA3E0FFEF24FFFFEE34FFFEED3459
:10341F00FFFDEC34FFFC90015C12331690015CE071
:10342F00FCA3E0FDA3E0FEA3E0FFEC4D4E4F70C206
:10343F00D21980BE20193320B330E490015BF09095
:10344F00015AE0FFA3E0FEC39F501F74EE2EF582DA
:10345F00E43400F583E0F5A0C2B4123EE7D2B41213
:10346F003EE790015BE004F080D575A0FFD2B2D2A9
:08347F00B4D286123EE7A21947
:013487002222
:1000260090012CE0123353009A0002420100C102F3
:1000360000D9030F3604020505011B060245080612
:10004600090909FE0A10140C17A80F18D9100D403B
:10005600190F761E187B200F5B241B28251B56269E
:100066001BCB271B872D171C2E0E043116E2331CC3
:100076000F341C5335175B361A2E371D8C3809245E
:10008600391DD63A1E243B1EB93C226C3D241F3E28
:100096000000246D900003E07004A3E06401600694
:1000A60020200302246D90012C7402F0E49000637A
:1000B600F0900003F0A37414021D51900003E07049
:1000C60004A3E06401600302246D90012C7403F024
:1000D600023DEB302027C220900079E0B4591B7B0B
:1000E600FF7A24796E123D58123DBC90012C74069D
:1000F600F07B017A007974023D58020F5390000399
:10010600E07004A3E06401600302246DC223A2131D
:100116009287020F532020030201F3C22090007938
:10012600E064596003021D62A3E0900022F0900093
:100136007BE090002FF090007CE0900032F0900081
:100146007DE0900034F07F43123CD67F41123CD6CE
:100156007F52123CD67F44123CD67F3A123CD67F61
:1001660020123CD690007AE0FF123BB49000ECE0FF
:10017600FF123CD6900130E0FF123CD67F20123CA5
:10018600D690007BE0FF123BB49000ECE0FF123CFF
:10019600D6900130E0FF123CD67F20123CD690006C
:1001A6007CE0FF123BB49000ECE0FF123CD69001DD
:1001B60030E0FF123CD67F20123CD690007DE0FF57
:1001C600123BB49000ECE0FF123CD6900130E0FF09
:1001D600123CD67F20123CD67F0D123CD67F0A12E7
:1001E6003CD6123B1C90012C7405021D5190000355
:1001F600E07004A3E06401600302246D021D7E30FA
:10020600201DC22090007AE0B4590C7F01123A24D6
:1002160090012C7408F0227BFF7A24799C8015903B
:100226000003E07004A3E06401600302246D7BFF19
:100236007A2479A8123D587F31021D89D29722204F
:1002460020030205ECC22090007BE06459600302A3
:1002560005DED207123F067BFF7A2479B7123D5896
:100266007B017A007974900019E0FD123BFE7BFF5A
:100276007A2479D5123D58123F067BFF7A2479D825
:10028600123D5890007CE0FF900008F0123BB490BD
:1002960000ECE0FF123CD6900130E0FF123CD67F26
:1002A60020123CD67F0D123CD67F0A123CD6123F56
:1002B600067BFF7A2479E9123D5890007DE0FF9095
:1002C600001AF0123BB49000ECE0FF123CD690010D
:1002D60030E0FF123CD67F20123CD67F0D123CD672
:1002E6007F0A123CD6123F067BFF7A2479F7123D2D
:1002F6005890012EE0FF123D1A7BFF7A2479D51221
:100306003D58123F067BFF7A257903123D5890002F
:100316007FE0FF900005F0123BB49000ECE0FF1286
:100326003CD6900130E0FF123CD67F20123CD67FAF
:100336000D123CD67F0A123CD6123F067BFF7A2569
:10034600790F123D589000EDE0FF123D1A7BFF7ABF
:100356002479D5123D58123F067BFF7A257919126A
:100366003D58E4900154F0900154E0FFC39410749A
:100376008094805045E0FE247CF582E43400F583C9
:10038600E0FD74412EF582E43400F583EDF0747CD3
:100396002FF582E43400F583E0FF123BB49000ECC5
:1003A600E0FF123CD6900130E0FF123CD67F2012CF
:1003B6003CD6900154E004F080AD7F0D123CD67F10
:1003C6000A123CD690012EE0FF90001AE0FEB50717
:1003D60003200722EEB5070C9000EDE0FF90000524
:1003E600E06F601290012EE060030205D09000EDF0
:1003F600E060030205D0900008E0FF7E0064016023
:100406000FEF6410600AEF64026005EF6405703850
:10041600200427201224EF64104E7004D2028002BA
:10042600C20290012C7409F090007B74FFF0C22088
:1004360090012B7402F0FF023A247BFF7A25792B78
:10044600123D587F39021D89900008E06406702C21
:1004560020040D200E0AC20ED20FC216C221D204EB
:100466009000EE7402F0A37430F0A3740BF0A37442
:1004760054F0A3743AF0A37431020522900008E008
:100486006407702C20040D200E0AC20EC20FC2167D
:10049600C221D2049000EE7402F0A37430F0A3746B
:1004A6000BF0A37454F0A3743AF0A374320205223D
:1004B600900008E06408703620040D200E0AC20E73
:1004C600D20FD216D221D2049000EE7402F0A37499
:1004D60030F0A3740BF0A37454F0A3743AF0A37431
:1004E600331233C33019387F071233EA8031900054
:1004F60008E064AA7030200E2DC20FC216C221C2B7
:1005060004D20E9000EE7402F0A37430F0A3740BC4
:10051600F0A37454F0A3743AF0A374301233C3906A
:10052600012C740C806C900008E0640C707A200E2C
:10053600772004662012637BFF7A25793B123D58AB
:10054600C20FC216C221C204C20E9000EE7402F09F
:10055600A37430F0A3740BF0A37454F0A3743AF0B0
:10056600A37444F0900022E09000F4F090002FE095
:100576009000F5F0900032E09000F6F0900034E044
:100586009000F7F0A3743AF0E4FF123A2490012C9D
:100596007439F0E49000630224137BFF7A25792BEB
:1005A600123D587F39021D89900008E0FF123BB4C6
:1005B6009000ECE0FF123CD6900130E0FF123CD6F2
:1005C6007F20123CD67F3B021D897BFF7A25794E20
:1005D600123D587F38021D897BFF7A257960123DCE
:1005E600587F32021D89900003E07004A3E0640185
:1005F600600302246D7BFF7A257960123D587F32B5
:10060600021D89202003020907C22090007BE064B6
:100616005960030208FF7BFF7A257971123D587BEA
:10062600FF7A257980123D58E4900154F0900154E8
:10063600E0FFC39410748094805030E0FE247CF573
:1006460082E43400F583E0FD74512EF582E4340033
:10065600F583EDF074512FF582E43400F583E0FF65
:10066600123D1A900154E004F080C27F0D123CD670
:100676007F0A123CD6300E54900086E070499000F6
:10068600EE7402F0A37430F0A37408F0A37455F06E
:10069600900022E09000F2F090002FE09000F3F03E
:1006A600900032E09000F4F0900034E09000F5F015
:1006B600A37403F09000617409F0FF1233EA90010D
:1006C6002C740CF00210117F3A020901900086E0AA
:1006D600640160030208537BFF7A257992123D5824
:1006E60090007CE0FF123AD09000ECE0900023F0FE
:1006F600900130E0900024F090007DE0FF123AD0A7
:100706009000ECE0900025F0900130E0900026F09B
:1007160090007EE0FF123AD09000ECE0900027F0C7
:10072600900130E0900028F090007FE0FF123AD070
:100736009000ECE0900029F0900130E090002AF063
:10074600900080E0FF123AD09000ECE090002BF091
:10075600900130E090002CF0900083E0FF90008242
:10076600E0FD123EF9900001EFF0E02430F07BFF4F
:100776007A25799D123D58900001E0FF123CD67F04
:100786000D123CD67F0A123CD6900084E0FE540F30
:10079600900035F0EE54F09000DAF0E0C4540FF01B
:1007A600900008E0FF64026005EF640A701590008F
:1007B60085E0FE54F090012FF0E0C4540FF0EE54A3
:1007C6000F8004900085E090012DF0900086E09067
:1007D6000062F0900087E0FF123AD09000ECE090C3
:1007E6000037F0900130E0900038F0900088E0FF8C
:1007F600123AD09000ECE0900039F0900130E09091
:10080600003AF0900089E0FF123AD09000ECE090B8
:10081600003BF0900130E090003CF090008AE0FF51
:10082600123AD09000ECE090003DF0900130E0905C
:10083600003EF090008BE0FF123AD09000ECE09082
:10084600003FF0900130E09000400208E190008601
:10085600E0640260030208F0900008E0FF640260B2
:1008660008EF640560030208F07BFF7A2579A3127E
:100876003D589000237430F0A3F0A3F0A3F0A3F04A
:10088600A3F0A3F0A3F0A3F0A3F0900001F0900072
:1008960084E0FE540F900035F0EE54F09000DAF04C
:1008A600E0C4540FF0900085E0FE54F090012FF064
:1008B600E0C4540FF0EE540F90012DF0900086E046
:1008C600900062F09000377430F0A3F0A3F0A3F02C
:1008D600A3F0A3F0A3F0A3F0A3F0A3F0E4FF123A71
:1008E6002490012C740AF00210117BFF7A2579C836
:1008F600123D58122EAD0210117F35123D8B02109B
:1009060011900003E07004A3E06401600302246D0B
:100916007BFF7A2579D6123D587F32021D89202029
:100926000F900003E07004A3E06401600302246DED
:1009360090007BE06459703C7BFF7A2579E7123D95
:1009460058E4900154F0900154E0C39410748094DC
:1009560080504AE0FF247CF582E43400F583E0FE13
:1009660074F92FF582E43400F583EEF0900154E03B
:1009760004F080D2900154740BF0900154E0FFC350
:10098600941B74809480501574EE2FF582E4340025
:10099600F5837420F0900154E004F080DD900109A5
:1009A6007403F0E4900154F0900154E0FFC3941CEA
:1009B60074809480501774EE2FF582E43400F5832A
:1009C600E0FF123CD6900154E004F080DB7F0D126C
:1009D6003CD67F0A123CD67F1C1233EA90012C7457
:1009E6000CF0E4900063F09000037404F0A374B07C
:1009F600F09000A674D0F02220200B900008E0644E
:100A0600026003020D237BFF7A2579F9123D589087
:100A1600007BE06459600B900008E064026003020A
:100A26000D1BC2209000EE7402F0A37430F090000B
:100A3600F1744CF09000617404F0900008E0FF64DB
:100A4600026005EF6405700F90002FE0FF90002212
:100A5600E0FD1231A5803DE4900154F0900154E090
:100A6600FF247CF582E43400F583E06027747C2F54
:100A7600F582E43400F583E0FF900061E0FE04F0C7
:100A860074EE2EF582E43400F583EFF0900154E025
:100A960004F080C8900061E0FF04F074EE2FF58248
:100AA600E43400F583743AF0E4900154F090015474
:100AB600E0FFC3940A74809480502774232FF58234
:100AC600E43400F583E0FF900061E0FE04F074EE8C
:100AD6002EF582E43400F583EFF0900154E004F043
:100AE60080CB900061E0FF04F074EE2FF582E434D1
:100AF60000F583743AF0900035E0FF7E00700C90AC
:100B06000061E0FD04F074EE2D8060EF64014E702C
:100B160016900061E0FF04F074EE2FF582E43400D5
:100B2600F583744DF0804E900035E0FF7E00640240
:100B36007016900061E0FD04F074EE2DF582E43449
:100B460000F5837442F0802DEF64034E90006170CF
:100B560013E0FF04F074EE2FF582E43400F583749D
:100B660054F08011E0FF04F074EE2FF582E43400B7
:100B7600F5837443F0900061E0FF04F074EE2FF506
:100B860082E43400F583743AF0900001E0FF9000AF
:100B960061E0FE04F074EE2EF582E43400F583EF96
:100BA600F0900061E0FF04F074EE2FF582E434006B
:100BB600F583743AF0E4900154F0900154E0FFC3D9
:100BC600940A74809480502774372FF582E4340099
:100BD600F583E0FF900061E0FE04F074EE2EF582EE
:100BE600E43400F583EFF0900154E004F080CB90FC
:100BF6000061E0FF04F074EE2FF582E43400F58323
:100C0600743AF0900008E0FFFD7C0064106019EF74
:100C16002430FF900061E0FE04F074EE2EF582E4CD
:100C26003400F583EFF08014900061E0FF04F07467
:100C3600EE2FF582E43400F5837450F0900061E005
:100C4600FF04F074EE2FF582E43400F583743AF075
:100C5600300029ED64024C6023900008E0FF640A2E
:100C6600601AEF640F60157BFF7A267907123D58EC
:100C7600123B6890012C7419F0020D20900061E07F
:100C8600FF04F074EE2FF582E43400F5837420F04F
:100C9600900061E0FF04F074EE2FF582E43400F575
:100CA60083743AF0900061E0FF04F074EE2FF58251
:100CB600E43400F5837403F0900061E09000F0F0F6
:100CC600E4900154F0900061E0FF900154E0FEC30F
:100CD6009F501774EE2EF582E43400F583E0FF1280
:100CE6003CD6900154E004F080DB7F0D123CD67FA9
:100CF6000A123CD6900061E0FF1233EA30190890E0
:100D06000061E0FF1233EA90012C740CF09000A60B
:100D16007448F080057F35123D8B02101190000358
:100D2600E07004A3E06401600302246D7BFF7A2671
:100D3600790E123D587F32021D89900003E070043F
:100D4600A3E06401600620200302246D30201E907B
:100D5600007AE0B459177BFF7A26791F123D58C2F4
:100D660020E4FF123A7A90012C7431F0229000614F
:100D7600E0FF04F074EE2FF582E43400F58374206E
:100D8600F0900061E0FF04F074EE2FF582E4340089
:100D9600F583743AF0900061E0FF04F074EE2FF5ED
:100DA60082E43400F5837403F0900061E09000F073
:100DB600F0E4900154F0900061E0FF900154E0FEF1
:100DC600C39F501774EE2EF582E43400F583E0FFDE
:100DD600123CD6900154E004F080DB7F0D123CD625
:100DE6007F0A123CD6900061E0FF1233EA20190315
:100DF600020F2F900061E0FF1233EA020F2F9000DE
:100E060003E07004A3E06401600620200302246D61
:100E160030207690007BE06459706E7BFF7A2679ED
:100E260028123D58C220E4900154F0900154E02469
:100E36007CF582E43400F583E0603A900154E0FFEB
:100E4600247CF582E43400F583E0FE900061E0FD49
:100E560004F074EE2DF582E43400F583EEF0747C34
:100E66002FF582E43400F583E0FF123CD69001545E
:100E7600E004F080B690008BE09000D9F07F0D1270
:100E86003CD67F0A123CD68014900061E0FF04F045
:100E960074EE2FF582E43400F5837420F09000613F
:100EA600E0FF04F074EE2FF582E43400F583743A23
:100EB600F0900061E0FF04F074EE2FF582E4340058
:100EC600F5837403F0900061E09000F0F0123F06A5
:100ED6007BFF7A26792F123D58E4900154F090005A
:100EE60061E0FF900154E0FEC39F501774EE2EF5AB
:100EF60082E43400F583E0FF123CD6900154E0040E
:100F0600F080DB7F0D123CD67F0A123CD6123F06DC
:100F1600900061E0FF1233EA301908900061E0FFAB
:100F26001233EA9000A67448F090012C740CF0225B
:100F3600900003E07004A3E0640160062020030231
:100F4600246D900003E4F0A37464F0C22090012C99
:100F560074020223E4900003E07004A3E0640160DD
:100F66000302246D123DEB90012C741EF0021B82CD
:100F7600900003E07004A3E06401600620200302F1
:100F8600246D20200302100C900077E064507076E8
:100F960020B3681237379000F1E0B43F219000EE9D
:100FA6007402F0A37430F0A37406F0A3743FF0A3A8
:100FB6007406F0A37403F07F061233EA803D9000B6
:100FC600F1E0FFB46F06C20EC2048023EFB44604FC
:100FD600D2128027EF64457022C212C21BC21CC205
:100FE6001DC20EC204C297C206C208C209C20AC204
:100FF6000FC216C221C222C20CC21E123DEB9001C4
:101006002C741EF08005E490012CF0021B829000E7
:10101600A6E0640170117F41123D8B7BFF7A267931
:101026004B123D580216D730B3030216D712373784
:101036009000EEE06406700C900061E064017004BC
:101046009000A6F09000F1E0644F60030214A890AF
:1010560000A6F0900061E0640570783004047F39E2
:1010660080027F3D123D8B7F50123CD67F43123C5F
:10107600D67F3A123CD6E4900154F0900154E0FF3A
:10108600C3940574809480501774EE2FF582E4346F
:1010960000F583E0FF123CD6900154E004F080DBBB
:1010A6007BFF7A26795E123D58E4900154F0900158
:1010B60054E0FFC3943C7480948040030216D774B6
:1010C600EE2FF582E43400F583E4F0900154E00459
:1010D600F080DB900061E0C394107480948050032C
:1010E6000214A37BFF7A26796A123D58123F06E462
:1010F600900154F0900061E0FF900154E0FEC39F20
:10110600501774EE2EF582E43400F583E0FF123CAE
:10111600D6900154E004F080DB7F0D123CD67F0AA6
:10112600123CD6123F069000F1E0644F60030213B2
:10113600719000F3E0FFA3E0FD123EF97E009000FF
:1011460020EEF0A3EFF0120003900020E4F0A3EFEE
:10115600F09000F5E0FFA3E0FD123EF97E0090005E
:101166001CEEF0A3EFF012000390001CE4F0A3EFD6
:10117600F09000F7E0FFA3E0FD123EF97E0090003C
:101186002DEEF0A3EFF012000390002DE4F0A3EF94
:10119600F09000F9E0FFA3E0FD123EF97E0090001A
:1011A60030EEF0A3EFF0120003900030E4F0A3EF6E
:1011B600F09000FBE0FFA3E0FD123EF97E009000F8
:1011C6001EEEF0A3EFF01200037E0090001EEEF07C
:1011D600A3EFF0FD90012DE0440F90005AF090002F
:1011E60020A3E090005CF090001CA3E090005DF06E
:1011F60090002DA3E090005EF0900030A3E09000F8
:101206005FF0A3EDF07BFF7A2679A0123D58123FDE
:1012160006E4900154F0900154E0FFC394107480EA
:1012260094805030E0FE2451F582E43400F583E0EA
:10123600FD74DB2EF582E43400F583EDF074DB2FCC
:10124600F582E43400F583E0FF123D1A900154E084
:1012560004F080C27F0D123CD67F0A123CD6123FA4
:1012660006E4900154F0900154E0C3941074809405
:10127600805021E0FF2451F582E43400F583E0FE3E
:1012860074092FF582E43400F583EEF0900154E002
:1012960004F080D29000037401F0A374F4F090007F
:1012A60041E06410601D7BFF7A2679AE123D5890AE
:1012B600012B7402F0123DEBC22090012C742EF02B
:1012C6000216D77BFF7A2679CF123D5890004174DB
:1012D60001F0E4900154F0900154E0FFC3941074BF
:1012E6008094805030E0FE2441F582E43400F5839A
:1012F600E0FD74DB2EF582E43400F583EDF074DB5B
:101306002FF582E43400F583E0FF123D1A90015474
:10131600E004F080C27F0D123CD67F0A123CD61242
:101326003F06E4900154F0900154E0C39410748099
:1013360094805021E0FF2441F582E43400F583E0F7
:10134600FE74092FF582E43400F583EEF090015423
:10135600E004F080D2E49000A6F090012B04F01295
:101366003DEBC22090012C743EF0229000F1E06427
:101376004D60030214969000F3E0FFA3E0FD123ED9
:10138600F97E00900020EEF0A3EFF012000390002B
:1013960020E4F0A3EFF09000F5E0FFA3E0FD123E9D
:1013A600F97E0090001CEEF0A3EFF012000390000F
:1013B6001CE4F0A3EFF09000F7E0FFA3E0FD123E7F
:1013C600F97E0090002DEEF0A3EFF01200037E00F0
:1013D60090002DEEF0A3EFF0900020A3E0900049DE
:1013E600F090001CA3E090004AF0A3EFF0123F0635
:1013F6007BFF7A2679FD123D58E4900154F0900166
:1014060054E0FFC39410748094805030E0FE244171
:10141600F582E43400F583E0FD74DB2EF582E434D6
:1014260000F583EDF074DB2FF582E43400F583E0FC
:10143600FF123D1A900154E004F080C27F0D123C69
:10144600D67F0A123CD6123F06E4900154F0900172
:1014560054E0C39410748094805021E0FF2441F539
:1014660082E43400F583E0FE74092FF582E434004B
:10147600F583EEF0900154E004F080D290012B74D5
:1014860001F0123DEBC22090012C7433F00216D706
:101496003004057F390216D47F3D0216D47F3C0204
:1014A60016D49000F1E0644D60030215E1A3E064F8
:1014B6003A60030215E19000A6F09000F3E0FFA366
:1014C600E0FD123EF97E00900020EEF0A3EFF01250
:1014D6000003900020E4F0A3EFF09000F5E0FFA3F6
:1014E600E0FD123EF97E0090001CEEF0A3EFF01234
:1014F600000390001CE4F0A3EFF09000F7E0FFA3D8
:10150600E0FD123EF97E0090002DEEF0A3EFF01202
:1015160000037E0090002DEEF0A3EFF0900020A3D4
:10152600E0900049F090001CA3E090004AF0A3EF81
:10153600F0123F067BFF7A277922123D58E490018C
:1015460054F0900154E0FFC394107480948050309E
:10155600E0FE2441F582E43400F583E0FD74DB2EE1
:10156600F582E43400F583EDF074DB2FF582E43484
:1015760000F583E0FF123D1A900154E004F080C2AA
:101586007F0D123CD67F0A123CD6123F06E490012C
:1015960054F0900154E0C39410748094805021E07C
:1015A600FF2441F582E43400F583E0FE74092FF54B
:1015B60082E43400F583EEF0900154E004F080D22A
:1015C600123DEBC22090012C7433F0E4900063F0DE
:1015D600900003F0A3740AF00216D79000F1E0FF22
:1015E600B46F0BE49000A6F0C20EC2048017EF643D
:1015F6004570219000A6F0C20EC204C297C206C270
:1016060008C209C20AC20FC216C221C222C20CC235
:101616001E0216D7EFB4460AD212E49000A6F002D4
:1016260016D7EFB43F13E49000A6F0123DEB9001FD
:101636002C740FF0D21A0216D79000F1E0645560B0
:10164600030216D79000F3E0640360030216D790F6
:1016560000A6F09000F2E0FF7E00C39436748094FA
:10166600804069D3EF943974809480505FE4900091
:10167600F1F0A3E024D09000DBF090012EE0900082
:10168600DCF0E4A3F0900005E09000DEF0E4A3F0C7
:101696009001547405F0900154E0FFC394107480D7
:1016A6009480501474DB2FF582E43400F583E4F063
:1016B600900154E004F080DE90012B7401F0FF12DB
:1016C60038D390012C7410F0D21580057F3B123D63
:1016D6008B900003E07004A3E0640122900003E015
:1016E6007004A3E06401600620200302246D30200C
:1016F60061C220900079E0B45919D2159000367471
:1017060004F090012B7401F0FF1238D390012C7471
:1017160010F022022455900003E07004A3E0640157
:10172600600620200302246D302027C22090007915
:10173600E0B4591B7BFF7A277949123D58D21590A0
:1017460000367404F0123B1C90012C7420F0220227
:10175600245502245E900003E07004A3E064016057
:101766000620200302246D302035C220900079E047
:10177600B459297BFF7A27796D123D58900036744B
:1017860004F090012B7401F0FF1238D3900003E4AB
:10179600F0A37464F090012C7437F02202245502F1
:1017A600245E900003E07004A3E06401600620203C
:1017B6000302246D202003021864900079E0645926
:1017C600703390012C740CF0E4900063F0900003E9
:1017D60004F0A374F4F0201A03021878C21A9000D9
:1017E600EE7402F0A37430F0A37406F0A3743FF015
:1017F600A3740680337F061238557F40123D8BE472
:10180600900036F0900063F0900003F0A37464F04B
:101816009000EE7402301A1CF0A37430F0A3740624
:10182600F0A37465F0A37440F0A37403F07F06126E
:1018360033EA803EF0A37430F0A37405F0A3745825
:10184600F0A37403F07F051233EAC212C20EC2047B
:10185600C20FC216C221C222C20CC21E801490013F
:101866002C740CF0E4900063F090000304F0A37471
:10187600F4F0C22022900003E07004A3E06401604B
:101886000620200302246D30203590007AE0B459FA
:101896002EC2207BFF7A27799A123D5890012B742D
:1018A60002F0FF1238D390012C7410F0D215C2202A
:1018B600E4900063F0900003F0A37464F08011904C
:1018C600012B7402F0E4FF12385590012C7425F0B8
:1018D600021B82900003E07004A3E064016006200E
:1018E600200302246D202003021A0B90007BE06483
:1018F600596003021A0BC2207BFF7A2779A8123D92
:10190600587F52123CD67F44123CD67F3A123CD6C0
:10191600E4900154F0900154E0FFC3941074809455
:10192600805017747C2FF582E43400F583E0FF12B3
:101936003D1A900154E004F080DB7F0D123CD67F07
:101946000A123CD6D21FE4900154F0900154E0C331
:10195600941074809480502BE0FF247CF582E4344C
:1019660000F583E0FE74DB2FF582E43400F583E0B6
:101976006E60089001547410F0C21F900154E00488
:10198600F080C8301F5E7BFF3015157A2779B812B4
:101996003D587F3E123D8BE4900036F0C215801113
:1019A6007A2779C9123D587F3D123D8BE490003667
:1019B600F07BFF7A2779D7123D58E4900154F090D6
:1019C6000154E0FFC3943C74809480400302246D6C
:1019D60074EE2FF582E43400F583E4F0900154E0D0
:1019E60004F080DB7BFF7A2779E7123D5890012CC3
:1019F6007425F0E4900063F0900003F0A37414F0F3
:101A0600C220021DCB30200D90007BE0B44E06C2F2
:101A1600207F0180052020057F02123855C22090C4
:101A2600012C7425F0021DCB900003E07004A3E0A6
:101A36006401600620200302246D202003021B029D
:101A460090007BE064596003021B02C2207BFF7A90
:101A56002779F5123D58123F06E4900154F09001A3
:101A660054E0FFC39410748094805030E0FE2451FB
:101A7600F582E43400F583E0FD74DB2EF582E43470
:101A860000F583EDF074DB2FF582E43400F583E096
:101A9600FF123D1A900154E004F080C27F0D123C03
:101AA600D67F0A123CD6E4900154F0900154E0C36C
:101AB6009410748094805021E0FF2451F582E43420
:101AC60000F583E0FE74092FF582E43400F583EE19
:101AD600F0900154E004F080D2123F0690012B747E
:101AE60002F0123DEBC22090012C742EF0E490001F
:101AF60063F0900003F0A37414F0802330200D905F
:101B0600007BE0B44E06C2207F0180052020057FC1
:101B160002123855123B1CC22090012C7438F00278
:101B26001DCB900003E07004A3E06401600302246F
:101B36006D900036E06003123C90C22090012C7438
:101B460026F0E4900063F0900003F0A37405F02201
:101B5600900003E07004A3E06401600302246D902A
:101B66000036E0600D14F0123DEB90012C7434F059
:101B7600800A7F051238557F33123D8BC220021D25
:101B8600CB900003E07004A3E0640160062020030C
:101B960002246D30201B900079E0B459147BFF7A43
:101BA60028790F123D58123B1C90012C7427F080A7
:101BB6000F7F061238557F40123D8BE4900036F0B9
:101BC600C220021DCB900003E07004A3E064016014
:101BD6000620200302246D30201B90007AE0B459C1
:101BE6001490012BE0FF1238D390012C7410F0D220
:101BF60015C220800F7BFF7A28792F123D5890015D
:101C06002C7425F0C220021DCB900003E07004A3C3
:101C1600E06401600620200302246D30201B900042
:101C260079E0B459147BFF7A24796E123D58123D3F
:101C3600BC90012C7435F0800F7F061238557F401A
:101C4600123D8BE4900036F0C220021DCB2020030B
:101C5600021D6FC220900079E064596003021D6284
:101C6600A3E0900131F090007BE0900132F090000B
:101C76007CE0900133F090007DE0900134F07BFF32
:101C86007A28793A123D5890007AE0FF123BB490D8
:101C960000ECE0FF123CD6900130E0FF123CD67F0C
:101CA60020123CD690007BE0FF123BB49000ECE0A3
:101CB600FF123CD6900130E0FF123CD67F20123C4A
:101CC600D690007CE0FF123BB49000ECE0FF123CA3
:101CD600D6900130E0FF123CD67F20123CD6900011
:101CE6007DE0FF123BB49000ECE0FF123CD6900181
:101CF60030E0FF123CD67F20123CD67F0D123CD638
:101D06007F0A123CD6900131E0FF900022E06F700E
:101D16003E900132E0FF90002FE06F703290013369
:101D2600E0FF900032E0B50726900134E0FF900016
:101D360034E07E00B507047F0180027F00EF640176
:101D46004E700C123DEB90012C742DF0C220227BBC
:101D5600FF7A28794A123D587F3F80277BFF7A24F5
:101D6600797D123D587F3F801A900003E07004A3EE
:101D7600E06401600302246D7BFF7A24798A123DB8
:101D8600587F32023D8B900003E07004A3E06401AB
:101D9600600620200302246D30201990007AE0B4FA
:101DA600591290012BE0FF1238D390012C7437F0B2
:101DB600C220800F7BFF7A28792F123D5890012C84
:101DC6007438F0C220E4900063F0900003022266AB
:101DD600900003E07004A3E0640160062020030283
:101DE600246D7BFF7A287966123D58900019E0FF32
:101DF60064456063EFB44402805DC220A205928709
:101E0600D22390012C743BF09000637406F090008E
:101E1600037404F0A374B0F0E4900019F02290006B
:101E260003E07004A3E06401600620200302246D31
:101E360030203A7BFF7A28798E123D587BFF7A282C
:101E460079A3123D587B017A007974123D587BFFC5
:101E56007A2479D5123D5890012C743CF090006399
:101E66007406F0900003E4F0A37403F022900136A8
:101E7600E06405701B7BFF7A2879C9123D58E4900F
:101E86000136F0D2ACC223A2139287C22002229F4F
:101E9600900136E004F0D2ACD223A2059287C2208C
:101EA600E4900019F090012C743BF09000637406E6
:101EB600022413900003E07004A3E064016006208E
:101EC600200302246DC2AC7BFF7A2879EC123D58C0
:101ED6009000EE7402F0A37430F0A3744CF0A37477
:101EE60051F0E4A3F09000617404F0123F067BFF0A
:101EF6007A297900123D58900019E0FF123CD67BF2
:101F0600FF7A2479D5123D58123F067B017A007973
:101F160074123E45900155EFF07E002474F9EE34BC
:101F260000FA7B017D3E123ED4900156EFF09001FF
:101F36005D74FFF0A37429F0A37420F07B017A008E
:101F4600797412354D900157EBF0A3EAF0A3E9F04E
:101F56004A90013560057443F08003744DF07BFFB1
:101F66007A297926123D58900135E0FF123CD67B3E
:101F7600FF7A2479D5123D587BFF7A297939123DAB
:101F860058900155E0FF123D1A7BFF7A2479D5124D
:101F96003D587BFF7A297950123D58900156E0FF53
:101FA600123D1A7BFF7A2479D5123D58E490013709
:101FB600F0900155E0FF640C600302223EFE74744B
:101FC6002FF9EE3400FA90015D7401F0A3EAF0A354
:101FD600E9F0900156E0FF900160EEF0A3EFF07B90
:101FE600017A0179371239BC900156E02437F5821F
:101FF600E43401F583E4F07B017A017937123EBFC0
:10200600900061EFF090015D7401F0A37401F0A3FC
:102016007437F0A3E4F0A3EFF07B017A0079EE12B7
:10202600348890015D74FFF0A37429F0A37466F000
:102036007B017A0079EE1239517BFF7A2979681291
:102046003D587B017A017937123D587BFF7A247916
:10205600D5123D5890015D74FFF0A37429F0A37466
:102066007CF07B017A00797412354D900157EBF0C4
:10207600A3EAF0A3E9F0900157E0FBA3E0FAA3E09E
:102086002407F9E43AFA90015DEBF0A3EAF0A3E93C
:10209600F0A3E4F0A37410F07B017A0179411239C0
:1020A600BC7BFF7A297983123D587B017A017941FD
:1020B600123D587BFF7A2479D5123D5890015D7404
:1020C60001F0A37401F0A37443F0A3E4F0A3740237
:1020D600F07B017A0079EE12348890015D7401F08C
:1020E600A37401F0A37446F0A3E4F0A37402F07B9A
:1020F600017A0079EE12348890015D7401F0A374C0
:1021060001F0A37449F0A3E4F0A37402F07B017A12
:102116000079EE12348890015D7401F0A37401F029
:10212600A3744CF0A3E4F0A37402F07B017A007967
:10213600EE12348890015D7401F0A37401F0A3746B
:102146004FF0A3E4F0A37402F07B017A0079EE125B
:10215600348890015D74FFF0A37429F0A37466F0CF
:102166007B017A0079EE123951900135E090015DDC
:10217600B4430C74FFF0A37429F0A37496800A7418
:10218600FFF0A37429F0A37498F07B017A0079EE2E
:1021960012395190015D74FFF0A37429F0A3749A6B
:1021A600F07B017A0079EE12395190015D74FFF0EF
:1021B600A37429F0A3749EF07B017A0079EE12399C
:1021C600517B017A0079EE123EBF900061EFF0E09C
:1021D600FF24EEF582E43400F5837403F0EF0490F7
:1021E60000F0F07BFF7A2979AD123D587B017A0029
:1021F60079EE900061E004FD123BFE900061E00480
:10220600FF1233EA301909900061E004FF1233EA45
:102216009000A67448F0D2ACD223A2059287E4902F
:102226000019F0C22090012C743DF09000637406F2
:10223600F0900003E40223ED7BFF7A2979C3123D77
:1022460058D2ACA2059287E4900019F0D223C2209E
:1022560090012C743BF09000637406F0900003E448
:10226600F0A37464F0229000A6E0640170607BFF26
:102276007A2979E6123D58900136E0640570287B8C
:10228600FF7A2979F5123D58E49000A6F0C223A200
:10229600139287123DEBC220E490012CF09000636C
:1022A600F09000030223ED900136E004F0E4900084
:1022B600A6F0D2ACD223A2059287C220900019F0D4
:1022C60090012C743BF0900063740602241330B323
:1022D6000302246D1237379000EEE06406700C900E
:1022E6000061E0640170049000A6F09000F1E064E3
:1022F6004F600302246D9000A6F0900061E0640533
:10230600705F7BFF7A2A790B123D587F50123CD6BC
:102316007F43123CD67F3A123CD6E4900154F090AB
:102326000154E0FFC3940574809480501774EE2F17
:10233600F582E43400F583E0FF123CD6900154E0C8
:1023460004F080DBE49000A6F0D2ACD223A2059282
:1023560087C22090012C743BF0900063740602241F
:1023660013900061E0C3941074809480500302249B
:102376006D7BFF7A2A792D123D58123F06E49001B3
:1023860054F0900061E0FF900154E0FEC39F5017A7
:1023960074EE2EF582E43400F583E0FF123CD6900D
:1023A6000154E004F080DB7F0D123CD67F0A123C1C
:1023B600D6123F06900136E0640570317BFF7A2A1B
:1023C600795B123D58E4900136F09000A6F0C223E6
:1023D600A2139287123DEBC22090012C7403F0E405
:1023E600900063F0900003F0A37414F0229001367D
:1023F600E004F0E49000A6F0D2ACD223A2059287C6
:10240600C22090012C743BF09000637406F090009B
:10241600037404F0A374B0F022900003E07004A3E8
:10242600E06401600330203F30202DC22090007907
:10243600E0B4591B7BFF7A2A797C123D58D215905D
:1024460000367404F0123B1C90012C7436F0227F87
:10245600061238557F4080077F021238557F3312A7
:072466003D8BE4900036F00D
:01246D00224C
:030000000237C9FB
:0C37C900787FE4F6D8FD758124023810EA
:1032BA00BB010689828A83E0225002E722BBFE0212
:0932CA00E32289828A83E4932245
:1032D300BB010CE58229F582E5833AF583E02250B0
:1032E30006E92582F8E622BBFE06E92582F8E222FA
:0D32F300E58229F582E5833AF583E4932214
:10330000C5F0F8A3E028F0C5F0F8E5821582700258
:063310001583E038F022F5
:0C331600ECF0A3EDF0A3EEF0A3EFF0222A
:10332200A8828583F0D083D08212333912333912C6
:103332003339123339E473E493A3C583C5F0C583EB
:10334200C8C582C8F0A3C583C5F0C583C8C582C8F5
:013352002258
:10335300D083D082F8E4937012740193700DA3A309
:1033630093F8740193F5828883E47374029368601D
:06337300EFA3A3A380DF1D
:1039510090015AEBF0A3EAF0A3E9F0900160EBF0DB
:10396100A3EAF0A3E9F090015AE0FBA3E475F001AA
:103971001233ADA9F0FA1232BA70EB90015B74FF09
:10398100F5F012330090015DE0FBA3E475F0011244
:1039910033ADA9F0FA1232BAFF90015AE0FBA3E469
:1039A10075F0011233ADA9F0FAEF12337970D690A8
:0B39B1000160E0FBA3E0FAA3E0F922B4
:1034880090015AEBF0A3EAF0A3E9F0E4900162F0AE
:10349800A3F0D3900161E09400900160E06480940F
:1034A80080500302354190015AE0FBA3E0FAA3E003
:1034B800F9900162E0FEA3E0F5828E831232D360B8
:1034C80010900163E004F070DD900162E004F08088
:1034D800D590015DE0FBA3E0FAA3E0F91232BA60EF
:1034E8003E90015DA3E475F0011233ADA9F0FA1224
:1034F80032BAFF90015AE0FBA3E0FAA3E0F9900189
:1035080062E475F0011233AD85F082F583EF123372
:103518008B90016074FFF5F012330045F070B290A3
:10352800015AE0FBA3E0FAA3E0F9900162E0FEA3F0
:10353800E0F5828E83E412338B90015AE0FBA3E01E
:05354800FAA3E0F922E6
:1039BC0090015AEBF0A3EAF0A3E9F0E4900162F075
:1039CC00A3F090016074FFF5F01233AD45F0603C4C
:1039DC0090015DE0FBA3E0FAA3E0F91232BAFF908C
:1039EC00015AE0FBA3E0FAA3E0F9900162E475F060
:1039FC00011233AD85F082F583EF12338BEF60C289
:103A0C0090015EE475F00112330080B690015AE02B
:083A1C00FBA3E0FAA3E0F9228C
:103EBF00E4FFFE1232BA600C0FEF70010E09E970C9
:053ECF00F20A80EF2261
:10354D0090015AEBF0A3EAF0A3E9F0A3E0FBA3E0AE
:10355D00FAA3E0F91232BA70030235F990015AE07C
:10356D00FBA3E0FAA3E0F91232BA7003023605901C
:10357D00015DE0F9A3E0FAA3E0A3C9F0A3EAF0A38B
:10358D00E9F090015AA3E0FAA3E0F9900163EBF0A2
:10359D00A3EAF0A3E9F0900160E0FBA3E0FAA3E059
:1035AD00F91232BAFF6026900163E0FBA3E0FAA3A3
:1035BD00E0F91232BA6F701590016175F001123396
:1035CD0000900164E475F00112330080C990016030
:1035DD00E0FBA3E0FAA3E0F91232BA7002800D907D
:1035ED00015BE475F00112330002356990015AE078
:0F35FD00FBA3E0FAA3E0F9227B007A0079002219
:1037D500022A90E493A3F8E493A34003F68001F250
:1037E50008DFF48029E493A3F85407240CC8C333F5
:1037F500C4540F4420C8834004F456800146F6DFC4
:10380500E4800B01020408102040809036A4E47E79
:10381500019360BCA3FF543F30E509541FFEE493B8
:10382500A360010ECF54C025E060A840B8E493A37F
:10383500FAE493A3F8E493A3C8C582C8CAC583CAAA
:10384500F0A3C8C582C8CAC583CADFE9DEE780BE62
:013736000092
:10337900BB010689828A83F0225002F722BBFE0133
:02338900F3222D
:10338B00F8BB010DE58229F582E5833AF583E8F078
:10339B00225006E92582C8F622BBFE05E92582C824
:0233AB00F2220C
:1033AD00A3F8E0C5F025F0F0E582158270021583D3
:0633BD00E0C838F0E82230
:00000001FF
