:103D9900504F53454520494E0D0A004443544F3A6C
:103DA90000696E6963696F206465627567206A706E
:033DB9000D0A00F0
:1035D4004100003041012E034100ED084200060580
:1035E400DC41012C024100190042000300004100AB
:1035F40002004100610041003600410035004100F5
:10360400A6004100D900C120C103C114C10FC121CA
:10361400C116C119C108C109C10AC106C104C11E2C
:10362400C10CC122C101C10EC11BC11CC11DC112EB
:10363400C115C11AC117C10BC10DC102C118C107FF
:0E364400C111C100C110C11FC123C105C19336
:073E4700D2B5D2B6C2B722CA
:073E4E00C2B5C2B6D2B722D3
:073E5500D2B5C2B6D2B722BC
:103AE400E49000ECF0900130F0AE07EE54F0C454D2
:103AF4000F9000ECF0D39409748094804006E02485
:103B040037F080079000ECE02430F0AE07EE540F5D
:103B1400900130F0D39409748094804005E02437F8
:093B2400F022900130E02430F0A1
:013B2D002275
:103A0000E49000EBF0A3F0900130F0EFC394647405
:103A1000809480400C749C2FFF9000EBE004F080B9
:103A2000EAEFC3940A74809480400C74F62FFF90E0
:103A300000ECE004F080EA900130EFF0FD9000EC43
:0B3A4000E04430F0ED4430900130F025
:013A4B002258
:0C3E2900EF540FC454F0FFED540F4FFF96
:013E3500226A
:0530D50090015AEDF02E
:1030DA00E4A3F0F9FBFAA3F0AD07EDFC90015AE086
:1030EA00FFAE04C3EF9410EE9427401074F02FFF44
:1030FA0074D83EFE90015BE004F080E7C3EF94E8E9
:10310A00EE9403400B74182FFF74FC3EFE0980EC0A
:10311A00C3EF9464EE9400400B749C2FFF74FF3E3F
:10312A00FE0B80ECC3EF940AEE9400400B74F62F6A
:10313A00FF74FF3EFE0A80EC90015CEFF090015BA9
:10314A00E060194430FF900061E0FE04F074EE2E56
:10315A00F582E43400F583EFF0E98003E96019446D
:10316A0030FF900061E0FE04F074EE2EF582E43444
:10317A0000F583EFF0EB8003EB602F4430FF900003
:10318A0061E0FE04F074EE2EF582E43400F583EF7C
:10319A00F0EA4430FF900061E0FE04F074EE2EF590
:1031AA0082E43400F583EFF0801BEA60184430FFB4
:1031BA00900061E0FE04F074EE2EF582E43400F52E
:1031CA0083EFF0800090015CE04430FF900061E002
:0F31DA00FE04F074EE2EF582E43400F583EFF07E
:0131E90022C3
:10000300AE07EEC4540F540FFE6012EF540FFFE41B
:0D001300FDEDC39E5007740A2FFF0D80F411
:0100200022BD
:103CBB00EFFD64306028ED64366023ED6439601EDF
:103CCB009000EE7402F0A37430F0A37406F0A374AA
:103CDB0065F0A3EFF0A37403F07F0612331A023BD7
:013CEB007860
:103BC0007F52123C067F45123C067F49123C067F1D
:103BD0004E123C067F54123C067F45123C067F4E37
:103BE000123C067F54123C067F4F123C067F3A126D
:103BF0003C06900036E04430FF123C067F0D123C3C
:063C0000067F0A023C06EB
:102DDD007BFF7A3D7999123C8890007CE0FF123A96
:102DED00009000ECE0900023F0900130E090002482
:102DFD00F090007DE0FF123A009000ECE09000258D
:102E0D00F0900130E0900026F090007EE0FF123A45
:102E1D00009000ECE0900027F0900130E090002849
:102E2D00F090007FE0FF123A009000ECE090002956
:102E3D00F0900130E090002AF0900080E0FF123A0F
:102E4D00009000ECE090002BF0900130E090002C11
:102E5D00F0900083E0FF900082E0FD123E2990008B
:102E6D0001EFF0E02430F07BFF7A3D79A4123C882D
:102E7D00900001E0FF123C067F0D123C067F0A1206
:102E8D003C06900084E0FE540F900035F0EE54F0B7
:102E9D009000DAF0E0C4540FF0900008E0FF6402F7
:102EAD006005EF640A7015900085E0FE54F0900106
:102EBD002FF0E0C4540FF0EE540F8004900085E025
:102ECD0090012DF0900086E0900062F0900087E078
:102EDD00FF123A009000ECE0900037F0900130E0E6
:102EED00900038F0900088E0FF123A009000ECE07E
:102EFD00900039F0900130E090003AF0900089E0B8
:102F0D00FF123A009000ECE090003BF0900130E0B1
:102F1D0090003CF090008AE0FF123A009000ECE047
:102F2D0090003DF0900130E090003EF090008BE07D
:102F3D00FF123A009000ECE090003FF0900130E07D
:102F4D00900040F0E4FF123954900003E4F0A374B4
:102F5D0096F0C220E4900063F090012C740AF022E8
:1029B700C2CFE4F5CDF5CCD2CAD2AF123DD6E58968
:1029C70054F04401F589C28DE4F58CF58AD28CC2A6
:1029D70006D282D286C297C283900033741CF0D28B
:1029E70090A2139287C2239000007430F0FF123C2C
:1029F700BBC211C220C212E4900036F0C20E900092
:102A070063F090012CF0900003F0A37496F0E4902B
:102A170000A6F0900152F0A3F0900152E0FEA3E06F
:102A2700FFC3943CEE9400501C74EE2FF5827400A3
:102A37003EF583E4F0900153E004F070DC9001521E
:102A4700E004F080D4C207D2007BFF7A3D79AA1256
:102A57003C88123E3675A0FF90001BE5A0F0D2908F
:102A6700302306A20592878004A2139287120026BC
:102A7700208D03022B38C28D900003E07002A3E083
:102A8700602A900004E024FFF0900003E034FFF098
:102A97003010192023167F05123E3FC21090000305
:102AA700E4F0A37496F09000637401F09000A6E040
:102AB700600214F0900033E014F0E0707420080610
:102AC700200903300A58200655D20690001B74309F
:102AD700F0300805E004F0D21B30090B90001BE032
:102AE70004F0E004F0D21C300A1190001BE004F05F
:102AF700E004F0E004F0E004F0D21D9000EE740270
:102B0700F0A37430F0A37406F0A37441F090001B97
:102B1700E09000F2F0A37403F07F0612331A9000DE
:102B270033741CF0200306D282D2038004C282C20F
:102B37000390012CE0FF640C7003022C6EEF641EFF
:102B47007003022C6E301503022C6E30B303022C77
:102B57006E1236679000F1E0644F6003022C0C7F21
:102B67003D123CBB900061E0FF64057003022C6ED0
:102B7700EF64106003022C6E7F53123C067F4912EC
:102B87003C067F4E123C067F20123C067F54123CC7
:102B9700067F41123C067F52123C067F4A123C06D2
:102BA7007F45123C067F54123C067F41123C067F4C
:102BB70020123C067F50123C067F43123C067F3AA8
:102BC700123C06E4900152F0A3F0900152E0FEA3FC
:102BD700E0FFC39410EE9400501F74EE2FF582743B
:102BE700003EF583E0FF123C06900153E004F070CD
:102BF700D9900152E004F080D17F0D123C067F0A84
:102C0700123C0680629000F1E0FFB46F06C20EC26C
:102C1700048023EFB44604D212804CEF644570243D
:102C2700C212C21BC21CC21DC20EC204C297C20678
:102C3700C208C209C20AC20FC216C221C222C20CEE
:102C4700C21E8023EFB43F1F9000EE7402F0A374FE
:102C570030F0A37406F0A37465F0A37440F0A37476
:102C670003F07F0612331A9000067409F0A374C4A8
:102C7700F0C218123E5530912F123E55309129302F
:102C8700911C201819900007E024FFF0900006E03F
:102C970034FFF0E07002A3E070E5D21880E130184D
:102CA70007200F04D297D2089000067409F0A37486
:102CB700C4F0C218123E4E30912F123E4E30912969
:102CC70030911C201819900007E024FFF0900006AF
:102CD700E034FFF0E07002A3E070E5D21880E13045
:102CE7001807201604D297D2099000067409F0A39A
:102CF70074C4F0C218123E4730912F123E473091EC
:102D07002930911C201819900007E024FFF090004B
:102D170006E034FFF0E07002A3E070E5D21880E12E
:102D2700301807202104D297D20A300F1030160D21
:102D370030210AC297C206C208C209C20A20040388
:102D4700022A5C123E55309127201E24201B21D2D7
:102D57001E9000EE7402F0A37430F0A37406F0A383
:102D67007453F0A37431F0A37403F07F0612331A7F
:102D7700123E4E309127200C24201C21D20C9000AB
:102D8700EE7402F0A37430F0A37406F0A37453F04A
:102D9700A37432F0A37403F07F0612331A123E476E
:102DA700209103022A5C302203022A5C301D0302B1
:102DB7002A5CD2229000EE7402F0A37430F0A37460
:102DC70006F0A37453F0A37433F0A37403F07F06E3
:062DD70012331A022A5C0F
:103DD600C20D759850438780438920758840758D3C
:093DE600F4758BF4D28ED2AC22EC
:053D490090015AEFF0AB
:103D4E00E4A3F090015AE0FFA3E0FEC39F50177466
:103D5E00A72EF582E43400F583E0FF123E3F90017A
:063D6E005BE004F080DDC3
:013D7400222C
:083E3F008F99D20D200DFD2228
:03002300022F6D3C
:0B2F6D00C0E0C083C082C0D075D00857
:102F78002098030230C5AF99C298900063E0B40767
:102F88000040030230C0902F95F8282873022FAA1A
:102F9800022FC5022FEC02300802302402305302FF
:102FA800306AEF64067005D2100230C5D223A2053C
:102FB8009287900019E4F0E02474023092EF6402E2
:102FC80060030230C5900019F0C220E0FE04F074DE
:102FD800742EF582E43400F583EFF09000637402F8
:102FE800F00230C5900019E0FE04F074742EF582EA
:102FF800E43400F583EFF09000637403F00230C509
:10300800900019E0FE04F074742EF582E43400F5A3
:1030180083EFF09000637404F00230C5900019E06B
:10302800FE04F074742EF582E43400F583EFF0901A
:103038000019E0D39432748094804002807AEF645F
:1030480003707A9000637405F08072900019E0FEB6
:1030580004F074742EF582E43400F583EFF0D22086
:10306800805B900019E0FEC3948074809480503D8A
:10307800EFB43C13D220E004F0E02474F582E43489
:1030880000F583E4F0803674742EF582E43400F59C
:1030980083EFF0900019E004F0E02474F582E43442
:1030A80000F583E4F09000637406F0801090001936
:1030B800E4F0900063F08005900063E4F030990438
:0430C800C299C20DDA
:0930CC00D0D0D082D083D0E032D4
:10353C002F2A2D2D2D2D2D2D2D2D2D2D2D2D2D2DB0
:10354C002D2D2D2D2D2D2D2D2D2D2D2D2D2D2D2D9F
:10355C002D2D2D2D2D2D2D2D2D2A2F0D0A004572A3
:10356C00726F723A200053454C2E20534543544FF2
:10357C00520D0A005254412E205752204E2E0D0A45
:10358C00005254412E205244204E2E0D0A00534915
:10359C004E205254412057520D0A0053494E20528E
:1035AC0054412052440D0A00475241424143494F75
:1035BC004E2E0D0A005441524A4554412052455456
:0835CC0049524144410D0A007F
:103DBC00E4FFEFD3940774809480500D0000000052
:093DCC000000000000000F80E976
:013DD50022CB
:023C0600AE0707
:103C0800C290123DBCAD06EE5401FE7004C2908015
:103C180002D290123DBC7C01ECD39407748094804E
:103C28005015EDC313FD5401FE7004C2908002D2FA
:103C380090123DBC0C80E1D290123DBC123DBC02FA
:023C48003DBC81
:023C4A00AB07C6
:103C4C00AA03EAC4540FFAD3940974809480EA50FE
:103C5C0004443080022437FF123C06AF03AA07EA63
:103C6C00540FFAD3940974809480EA500444308041
:0C3C7C00022437FF123C067F20023C06A9
:0B3C880090015BEBF0A3EAF0A3E9F071
:103C9300E4A3F0F090015BE0FBA3E0FAA3E0F9A357
:103CA300E0F582758300123203FF600B123C06902D
:073CB300015EE004F080DD7A
:013CBA0022E7
:093E36007BFF7A35793C023C88DF
:1037850090015AEFF07BFF7A35796A123C889001F7
:103795005AE070087BFF7A357972805E90015AE0B5
:1037A500640170087BFF7A357980804E90015AE07C
:1037B500640370087BFF7A35798D803E90015AE06D
:1037C500640270087BFF7A35799A802E90015AE061
:1037D500640470087BFF7A3579A7801E90015AE052
:1037E500640570087BFF7A3579B4800E90015AE044
:0E37F500640670097BFF7A3579C1123C882288
:0E3B2E0090015AEBF0A3EAF0A3E9F0A3EDF04A
:103B3C00E4A3F090015DE0FFA3E0C39F502490014B
:103B4C005AE0FBA3E0FAA3E0F91231EAFF123C4A77
:103B5C0090015BE475F00112323090015EE004F0EC
:0C3B6C0080D17F0D123C067F0A023C064F
:103B78009000A77402F0E4A3F0A37402F0A37432D7
:103B8800F0A37430F0A37403F0A37401F07F07125C
:103B98003D49E4900063F090012C7404F090000318
:103BA800E4F0A37496F0E4900034F0900032F090C2
:083BB800002FF0900022F02222
:103D1B009000A77402F0E4A3F0A37402F0A3743133
:103D2B00F0A314F0A37403F0A314F07F07123D4922
:0E3D3B00E4900063F0900003F0A37496F02271
:103CEC009000A77402F0E4A3F0A37402F0A374355F
:103CFC00F0A37431F0A37403F0A37407F0FF123D2A
:0F3D0C0049E4900063F0900003F0A37496F02256
:103A4C009000A77402F0E4A3F0A37409F0A37435FA
:103A5C00F0A37432F0A37401F0A37433F0A3745682
:103A6C00F0A37430F0A37470F0A37434F0A37472E8
:103A7C00F0A37403F0A3746DF07F0E123D49E49033
:0C3A8C000063F0900003F0A37496F02299
:103A98009000A77402F0E4A3F0A37409F0A37435AE
:103AA800F0A37432F0A37402F0A37441F0A374631A
:103AB800F0A37453F0A37445F0A37476F0A3745084
:103AC800F0A37403F0A3741FF07F0E123D49E49035
:0C3AD8000063F0900003F0A37496F0224D
:10395400E4FE9000A77402F0E4A3F0A37404F0A3BF
:103964007435F0A37433F0A37401F0A3EFF0A374DF
:1039740003F0E4FFEFC3940874809480501074A79C
:103984002FF582E43400F583E06EFE0F80E69000AC
:10399400AFEEF07F09123D49E4900063F09000031C
:0539A400F0A37496F091
:0139A90022FB
:1039AA00E4FE9000A77402F0E4A3F0A37404F0A369
:1039BA007435F0A37433F0A37402F0A3EFF0A37488
:1039CA0003F0E4FFEFC3940874809480501074A746
:1039DA002FF582E43400F583E06EFE0F80E6900056
:1039EA00AFEEF07F09123D49E4900063F0900003C6
:0539FA00F0A37496F03B
:0139FF0022A5
:10380300E4FE9000A77402F0E4A3F0A37414F0A301
:103813007435F0A314F0A37401F0A3EFF0E4FFEF09
:10382300C3941074809480501B74DB2FF582E434AE
:1038330000F583E0FD74AE2FF582E43400F583EDEB
:10384300F00F80DB9000BE7403F0E4FFEFC3941825
:1038530074809480501074A72FF582E43400F583AC
:10386300E06EFE0F80E69000BFEEF07F19123D4937
:0D387300E4900063F0900003F0A37496F061
:013880002225
:103D7500E4FF1231EAFDC3943074809480400AD385
:103D8500ED943974809480400A740129F9E43AFA73
:033D95000F80DFBD
:013D98002208
:103E0400E4FF1231EA6D600A740129F9E43AFA0F09
:023E140080F03C
:013E16002289
:0100210022BC
:103E1700E4FFFE1200210FBF00010EEF642D4E706C
:013E2700F2A8
:013E28002277
:10366700E4900061F0FFEFC3943C748094805010A5
:1036770074EE2FF582E43400F58374FFF00F80E6D3
:1036870020B369C286E4FEC2B2FFEFC3941E748002
:103697009480505630B40330B3FA74EE2FF582E4B9
:1036A7003400F583E5A0F020B436EE703320B33054
:1036B70074EE2FF582E43400F583E5A0F090006105
:1036C700E004F0E4FDFC20B417EE70140DBD00011A
:1036D7000CD3ED9430EC947540EC7E017F1F80E6AF
:1036E70030B3027F1FD2B20F80A0D286D2B275A0AC
:0136F700FFD3
:0136F80022AF
:10241B005441524A455441204C4F434B0D0A004501
:10242B0052524F5220434152440D0A0053494E2001
:10243B005254412E2053454C4543540D0A004552EE
:10244B00524F52204B45590D0A0053494E205254BE
:10245B00412E204B45590D0A000D0A7472616D61B6
:10246B002064656C206C6563746F72207461726A92
:10247B00657461730D0A000D0A007469706F206436
:10248B0065207461726A6574613A0049445F434C1C
:10249B0049454E54455F523A0049445F434C4945C8
:1024AB004E54453A00434F445F5041524B5F523AB2
:1024BB0000434F445F5041524B3A00454E204D5420
:1024CB004F2E20454A4543540D0A00434152445F69
:1024DB00434F4D5052415F4443544F0D0A004552F8
:1024EB00524F5220434F442E205041524B0D0A0065
:1024FB0053494E205254412E2052442042350D0A4E
:10250B000052442053363A00504F53454520494E14
:10251B000D0A004443544F3A004D454E5355414C20
:10252B00204E4F20504F53454520494E204F50438E
:10253B00494F4E2052454E4F5641520D0A005349BA
:10254B004E20494E475245534F0D0A0053494E20DA
:10255B005254412E2052442042360D0A004C45590C
:10256B00454E444F2042340D0A004B4559320D0A5B
:10257B000053494E205254412E2052442042340DD8
:10258B000A005244204C50520D0A00504C4143411A
:10259B003A00436F6D756E69636163696F6E20708E
:1025AB00746F20706172616C656C6F640A004558C2
:1025BB0050554C53412054494D45204F55540D0A0D
:1025CB00000D0A455850554C53410D0A000D0A5049
:1025DB00433A20636F6D756E69636163696F6E203B
:1025EB0070746F20706172616C656C6F20656A65C9
:1025FB00637420636F6E206665636861206F75740A
:10260B000D0A000D0A4461746F73204D46200D0AAC
:10261B00000D0A57525F4D46205345515F525441AE
:10262B005F5354415455535F57525F42363A200D16
:10263B000A000D0A57525F4D46205345515F5254C5
:10264B00415F57525F32204D4446435F5354445FC2
:10265B00505244445F415F5254434E3A200D0A009E
:10266B0057522056454E43494D49454E544F3A53C8
:10267B0045515F5254415F5354415455535F575228
:10268B005F4235200057522056454E43494D494530
:10269B004E544F2032205345515F5254415F535497
:1026AB00415455535F57525F42363A00636D642075
:1026BB006F6B205345515F5254415F5354415455F6
:1026CB00535F57525F42370D0A0047726162616E6A
:1026DB00646F2E2E2E0D0A00436F6D706172616E4A
:1026EB00646F2E2E2E0D0A00434152445F454A451E
:1026FB0043545F5752200D0A00434152445F454AF1
:10270B00454354200D0A00475241424143494F4E25
:10271B00204F4B200D0A004449464552454E434934
:10272B0041200D0A005265706172616E646F204D1D
:10273B004620706572646964612E2E2E0D0A007638
:10274B00616C6964612070617373776F726420537D
:10275B0045515F52455452595F4B45590D0A00453F
:10276B00525252204B45520D0A00434152445F4294
:10277B0041434B55503A200D0A004552524F5220BF
:10278B004E4F204553204C41204D49534D41204342
:10279B004152440D0A000D0A6C6563746F7220641C
:1027AB006174616C6F67696320636F6420515220A1
:1027BB005345515F51525F574149540D0A000D0A61
:1027CB005152205345515F51525F494E4943494F36
:1027DB000D0A000D0A7472616D612064656C206CCA
:1027EB006563746F7220646174616C6F67696320D9
:1027FB00636F642051520D0A0020484142494C49F5
:10280B00544F205441524A45544153205345515F34
:10281B0051525F494E4943494F0D0A00636F642083
:10282B005345515F51525F505450524C20720A0025
:10283B006E756D65726F2064652064696769746F6E
:10284B0073206465206C61207472616D61720A0083
:10285B00436172726F007469706F206465207665D6
:10286B00686963756C6F3A20006C6F6E676974757D
:10287B0064206465206C61207472616D613A200084
:10288B006C6F6E67697475642064656C2054696342
:10289B006B65743A20003A004E756D65726F20645B
:1028AB00656C205469636B65743A200046656368F8
:1028BB00613A00466563686120646520696E6772E2
:1028CB0065736F3A200043004D003A303A003030C8
:1028DB0030303030303030303A313A3A0054726167
:1028EB006D612070746F20706172616C656C6F0D1F
:1028FB000A20004552524F52206361726163746526
:10290B0072657320696E636F6D706C65746F732085
:10291B0051520D0A20002054494D45204F5554204B
:10292B0051520D0A0020484142494C49544F205402
:10293B0041524A45544153200D0A000D0A45585047
:10294B00554C5341207472616E73616363696F6E92
:10295B002043414E43454C4144410D0A000D0A5062
:10296B00433A205258206461746F2070746F20704A
:10297B006172616C656C6F20515220636F6E2066C3
:10298B0065636861206F75740D0A000D0A4841423A
:10299B00494C49544F204C454354555241204445D2
:0C29AB00205441524A455441200D0A00BE
:103652004101310041013200410133004101340096
:0436620041013600EC
:1032F300F0900022E09000F4F090002FE09000F5B1
:10330300F0900032E09000F6F0900034E09000F787
:07331300F0A37403F07F0B2F
:05331A0090015AEFF0E4
:10331F00D2B4C286C219C2B290015C1232520000FE
:10332F00C35030B33F20193C90015CE0FCA3E0FD9B
:10333F00A3E0FEA3E0FFEF24FFFFEE34FFFEED342A
:10334F00FFFDEC34FFFC90015C12324690015CE013
:10335F00FCA3E0FDA3E0FEA3E0FFEC4D4E4F70C2D7
:10336F00D21980BE20193320B330E490015BF09066
:10337F00015AE0FFA3E0FEC39F501F74EE2EF582AB
:10338F00E43400F583E0F5A0C2B4123E17D2B412B4
:10339F003E1790015BE004F080D575A0FFD2B2D24A
:0833AF00B4D286123E17A219E8
:0133B70022F3
:1000260090012CE012328300970002530100BE02B9
:1000360000D6030F2B04021605012C0602560806ED
:10004600110909F30A10090C17A40F18D5100D355C
:10005600190F6B1E1877200F50241B24251B5226C0
:100066001BC7271B832D17102E0DF93116D7331CEE
:100076000B341C4F351744361A2A371D8838092386
:10008600391DD23A1E203B1EB53C22683D00002495
:100096001A900003E07004A3E064016006202003C8
:1000A60002241A90012C7402F0E4900063F0900090
:1000B60003F0A37414021D4D900003E07004A3E046
:1000C6006401600302241A90012C7403F0023D1BA4
:1000D60030203BC220900079E0B4591B7BFF7A2484
:1000E600791B123C88123CEC90012C7406F07B01C3
:1000F6007A007974023C887B017A007974123C8814
:10010600A2059287D22390012C743A02222C9000E9
:1001160003E07004A3E06401600302241AC223A270
:10012600139287020F48202003020204C220900087
:1001360079E064596003021D5EA3E0900022F0900E
:10014600007BE090002FF090007CE0900032F09071
:10015600007DE0900034F07F43123C067F41123C64
:10016600067F52123C067F44123C067F3A123C063A
:100176007F20123C0690007AE0FF123AE49000ECF1
:10018600E0FF123C06900130E0FF123C067F201291
:100196003C0690007BE0FF123AE49000ECE0FF1290
:1001A6003C06900130E0FF123C067F20123C069090
:1001B600007CE0FF123AE49000ECE0FF123C06906F
:1001C6000130E0FF123C067F20123C0690007DE0E5
:1001D600FF123AE49000ECE0FF123C06900130E09A
:1001E600FF123C067F20123C067F0D123C067F0A5A
:1001F600123C06123A4C90012C7405021D4D9000DB
:1002060003E07004A3E06401600302241A021D7A6D
:1002160030201DC22090007AE0B4590C7F011239BB
:100226005490012C7408F0227BFF7A2479498015BA
:10023600900003E07004A3E06401600302241A7BCB
:10024600FF7A247955123C887F31021D85D2972288
:100256002020030205F4C22090007BE0645960036D
:100266000205E6D207123E367BFF7A247964123CF9
:10027600887B017A007974900019E0FD123B2E7B91
:10028600FF7A247982123C88123E367BFF7A2479E3
:1002960085123C8890007CE0FF900008F0123AE45A
:1002A6009000ECE0FF123C06900130E0FF123C06A5
:1002B6007F20123C067F0D123C067F0A123C061276
:1002C6003E367BFF7A247996123C8890007DE0FFCB
:1002D60090001AF0123AE49000ECE0FF123C06900F
:1002E6000130E0FF123C067F20123C067F0D123CD7
:1002F600067F0A123C06123E367BFF7A2479A41248
:100306003C8890012EE0FF123C4A7BFF7A247982DA
:10031600123C88123E367BFF7A2479B0123C8890D4
:10032600007FE0FF900005F0123AE49000ECE0FF59
:10033600123C06900130E0FF123C067F20123C067C
:100346007F0D123C067F0A123C06123E367BFF7A70
:100356002479BC123C889000EDE0FF123C4A7BFFFA
:100366007A247982123C88123E36E4900154F09049
:100376000154E0FFC39410748094805045E0FE243D
:100386007CF582E43400F583E0FD74412EF582E4C9
:100396003400F583EDF0747C2FF582E43400F583A8
:1003A600E0FF123AE49000ECE0FF123C06900130C8
:1003B600E0FF123C067F20123C06900154E004F058
:1003C60080AD7F0D123C067F0A123C0690012EE09E
:1003D600FF90001AE0FEB50703200722EEB5070CD2
:1003E6009000EDE0FF900005E06F601290012EE0B6
:1003F60060030205D89000EDE060030205D8900086
:1004060008E0FF7E006401600FEF6410600AEF648D
:10041600026005EF64057038200427201224EF647B
:10042600104E7004D2028002C20290012C7409F0B0
:1004360090007B74FFF0C22090012B7402F0FF0243
:1004460039547BFF7A2479C6123C887F39021D8590
:10045600900008E06406702C20040D200E0AC20EDF
:10046600D20FC216C221D2049000EE7402F0A37419
:1004760030F0A3740BF0A37454F0A3743AF0A37491
:100486003102052A900008E06407702C20040D2034
:100496000E0AC20EC20FC216C221D2049000EE741A
:1004A60002F0A37430F0A3740BF0A37454F0A37499
:1004B6003AF0A3743202052A900008E06408703608
:1004C60020040D200E0AC20ED20FD216D221D2045B
:1004D6009000EE7402F0A37430F0A3740BF0A374D2
:1004E60054F0A3743AF0A374331232F33019387F00
:1004F6000712331A8031900008E064AA7030200E8B
:100506002DC20FC216C221C204D20E9000EE740292
:10051600F0A37430F0A3740BF0A37454F0A3743AF0
:10052600F0A374301232F390012C740C806C90009E
:1005360008E0640C707A200E772004662012637B34
:10054600FF7A2479D6123C88C20FC216C221C20491
:10055600C20E9000EE7402F0A37430F0A3740BF098
:10056600A37454F0A3743AF0A37444F0900022E00C
:100576009000F4F090002FE09000F5F0900032E04B
:100586009000F6F0900034E09000F7F0A3743AF093
:10059600E4FF12395490012C7439F0E490006302A0
:1005A600240F7BFF7A2479C6123C887F39021D8589
:1005B600900008E0FF123AE49000ECE0FF123C06DF
:1005C600900130E0FF123C067F20123C067F3B0282
:1005D6001D857BFF7A2479E9123C887F38021D85C8
:1005E6007BFF7A2479FB123C887F32021D859000BE
:1005F60003E07004A3E06401600302241A7BFF7A1F
:100606002479FB123C887F32021D852020030209D3
:1006160006C22090007BE0645960030208FE7BFF5F
:100626007A25790C123C88E4900154F0900154E04C
:10063600FFC39410748094805030E0FE247CF582D1
:10064600E43400F583E0FD74512EF582E43400F5C0
:1006560083EDF074512FF582E43400F583E0FF1248
:100666003C4A900154E004F080C27F0D123C067FA4
:100676000A123C06300E54900086E070499000EE57
:100686007402F0A37430F0A37408F0A37455F090CC
:100696000022E09000F2F090002FE09000F3F0903E
:1006A6000032E09000F4F0900034E09000F5F0A302
:1006B6007403F09000617409F0FF12331A90012C54
:1006C600740CF00210067F3A020900900086E0647E
:1006D6000160030208527BFF7A257913123C889049
:1006E600007CE0FF123A009000ECE0900023F090CE
:1006F6000130E0900024F090007DE0FF123A009077
:1007060000ECE0900025F0900130E0900026F0909B
:10071600007EE0FF123A009000ECE0900027F09097
:100726000130E0900028F090007FE0FF123A009040
:1007360000ECE0900029F0900130E090002AF09063
:100746000080E0FF123A009000ECE090002BF09061
:100756000130E090002CF0900083E0FF900082E0F2
:10076600FD123E29900001EFF0E02430F07BFF7A85
:1007760025791E123C88900001E0FF123C067F0D91
:10078600123C067F0A123C06900084E0FE540F904D
:100796000035F0EE54F09000DAF0E0C4540FF0901B
:1007A6000008E0FF64026005EF640A70159000859A
:1007B600E0FE54F090012FF0E0C4540FF0EE540F19
:1007C6008004900085E090012DF0900086E0900076
:1007D60062F0900087E0FF123A009000ECE0900093
:1007E60037F0900130E0900038F0900088E0FF127A
:1007F6003A009000ECE0900039F0900130E0900073
:100806003AF0900089E0FF123A009000ECE0900088
:100816003BF0900130E090003CF090008AE0FF123F
:100826003A009000ECE090003DF0900130E090003E
:100836003EF090008BE0FF123A009000ECE0900052
:100846003FF0900130E09000400208E0900086E022
:10085600640260030208EF900008E0FF640260088B
:10086600EF640560030208EF7BFF7A257924123CCA
:10087600889000237430F0A3F0A3F0A3F0A3F0A3B4
:10088600F0A3F0A3F0A3F0A3F0900001F090008491
:10089600E0FE540F900035F0EE54F09000DAF0E0F0
:1008A600C4540FF0900085E0FE54F090012FF0E064
:1008B600C4540FF0EE540F90012DF0900086E09096
:1008C6000062F09000377430F0A3F0A3F0A3F0A319
:1008D600F0A3F0A3F0A3F0A3F0A3F0E4FF123954C1
:1008E60090012C740AF00210067BFF7A25794912D2
:1008F6003C88122DDD0210067F35123CBB02100625
:10090600900003E07004A3E06401600302241A7BF4
:10091600FF7A257957123C887F32021D8520200FE9
:10092600900003E07004A3E06401600302241A90BF
:10093600007BE0B45933E4900154F0900154E0C3D5
:10094600941074809480504AE0FF247CF582E4344D
:1009560000F583E0FE74F92FF582E43400F583EEAA
:10096600F0900154E004F080D2900154740BF090A2
:100976000154E0FFC3941B74809480501574EE2FCD
:10098600F582E43400F5837420F0900154E004F01D
:1009960080DD9001097403F0E4900154F090015455
:1009A600E0FFC3941C74809480501774EE2FF58278
:1009B600E43400F583E0FF123C06900154E004F0B5
:1009C60080DB7F0D123C067F0A123C067F1C123329
:1009D6001A90012C740CF0E4900063F090000374FC
:1009E60004F0A374B0F09000A674D0F02220200B7F
:1009F600900008E064026003020D187BFF7A2579F7
:100A060068123C8890007BE06459600B900008E017
:100A160064026003020D10C2209000EE7402F0A37F
:100A26007430F09000F1744CF09000617404F09012
:100A36000008E0FF64026005EF6405700F90002F68
:100A4600E0FF900022E0FD1230D5803DE490015495
:100A5600F0900154E0FF247CF582E43400F583E055
:100A66006027747C2FF582E43400F583E0FF900064
:100A760061E0FE04F074EE2EF582E43400F583EFB7
:100A8600F0900154E004F080C8900061E0FF04F0AB
:100A960074EE2FF582E43400F583743AF0E49001A5
:100AA60054F0900154E0FFC3940A74809480502758
:100AB60074232FF582E43400F583E0FF900061E0B3
:100AC600FE04F074EE2EF582E43400F583EFF09028
:100AD6000154E004F080CB900061E0FF04F074EE76
:100AE6002FF582E43400F583743AF0900035E0FF88
:100AF6007E00700C900061E0FD04F074EE2D8060C5
:100B0600EF64014E7016900061E0FF04F074EE2F62
:100B1600F582E43400F583744DF0804E900035E0A4
:100B2600FF7E0064027016900061E0FD04F074EE32
:100B36002DF582E43400F5837442F0802DEF6403D2
:100B46004E9000617013E0FF04F074EE2FF582E41E
:100B56003400F5837454F08011E0FF04F074EE2F36
:100B6600F582E43400F5837443F0900061E0FF04FD
:100B7600F074EE2FF582E43400F583743AF09000B9
:100B860001E0FF900061E0FE04F074EE2EF582E4D1
:100B96003400F583EFF0900061E0FF04F074EE2F6F
:100BA600F582E43400F583743AF0E4900154F09051
:100BB6000154E0FFC3940A74809480502774372F41
:100BC600F582E43400F583E0FF900061E0FE04F076
:100BD60074EE2EF582E43400F583EFF0900154E0D4
:100BE60004F080CB900061E0FF04F074EE2FF582F4
:100BF600E43400F583743AF0900008E0FFFD7C00D1
:100C060064106019EF2430FF900061E0FE04F07478
:100C1600EE2EF582E43400F583EFF0801490006147
:100C2600E0FF04F074EE2FF582E43400F58374508F
:100C3600F0900061E0FF04F074EE2FF582E43400DA
:100C4600F583743AF0300029ED64024C602390007D
:100C560008E0FF640A601AEF640F60157BFF7A25CF
:100C66007975123C88123A9890012C7419F0020D8D
:100C760015900061E0FF04F074EE2FF582E4340075
:100C8600F5837420F0900061E0FF04F074EE2FF518
:100C960082E43400F583743AF0900061E0FF04F0DA
:100CA60074EE2FF582E43400F5837403F09000614E
:100CB600E09000F0F0E4900154F0900061E0FF90C5
:100CC6000154E0FEC39F501774EE2EF582E4340003
:100CD600F583E0FF123C06900154E004F080DB7FD0
:100CE6000D123C067F0A123C06900061E0FF1233AB
:100CF6001A301908900061E0FF12331A90012C7423
:100D06000CF09000A67448F080057F35123CBB02BB
:100D16001006900003E07004A3E06401600302245F
:100D26001A7BFF7A25797C123C887F32021D8590DA
:100D36000003E07004A3E06401600620200302249F
:100D46001A30201E90007AE0B459177BFF7A257975
:100D56008D123C88C220E4FF1239AA90012C74310E
:100D6600F022900061E0FF04F074EE2FF582E43487
:100D760000F5837420F0900061E0FF04F074EE2F1C
:100D8600F582E43400F583743AF0900061E0FF04E4
:100D9600F074EE2FF582E43400F5837403F09000CE
:100DA60061E09000F0F0E4900154F0900061E0FF03
:100DB600900154E0FEC39F501774EE2EF582E43482
:100DC60000F583E0FF123C06900154E004F080DB5E
:100DD6007F0D123C067F0A123C06900061E0FF126E
:100DE600331A201903020F24900061E0FF12331A10
:100DF600020F24900003E07004A3E0640160062063
:100E0600200302241A30207690007BE06459706E2D
:100E16007BFF7A257996123C88C220E4900154F033
:100E2600900154E0247CF582E43400F583E0603AD6
:100E3600900154E0FF247CF582E43400F583E0FE63
:100E4600900061E0FD04F074EE2DF582E43400F5C7
:100E560083EEF0747C2FF582E43400F583E0FF1214
:100E66003C06900154E004F080B690008BE09000C0
:100E7600D9F07F0D123C067F0A123C0680149000C2
:100E860061E0FF04F074EE2FF582E43400F583741C
:100E960020F0900061E0FF04F074EE2FF582E43458
:100EA60000F583743AF0900061E0FF04F074EE2FD1
:100EB600F582E43400F5837403F0900061E090005D
:100EC600F0F0123E367BFF7A25799D123C88E4903D
:100ED6000154F0900061E0FF900154E0FEC39F5082
:100EE6001774EE2EF582E43400F583E0FF123C061B
:100EF600900154E004F080DB7F0D123C067F0A125D
:100F06003C06123E36900061E0FF12331A30190893
:100F1600900061E0FF12331A9000A67448F0900129
:100F26002C740CF022900003E07004A3E0640160CE
:100F36000620200302241A900003E4F0A37464F050
:100F4600C22090012C74020223E0900003E070049A
:100F5600A3E06401600302241A123D1B90012C7465
:100F66001EF0021B7E900003E07004A3E0640160A3
:100F76000620200302241A20200302100190007785
:100F8600E06450707620B3681236679000F1E0B4E2
:100F96003F219000EE7402F0A37430F0A37406F0C3
:100FA600A3743FF0A37406F0A37403F07F06123314
:100FB6001A803D9000F1E0FFB46F06C20EC20480B5
:100FC60023EFB44604D2128027EF64457022C21282
:100FD600C21BC21CC21DC20EC204C297C206C208F0
:100FE600C209C20AC20FC216C221C222C20CC21E46
:100FF600123D1B90012C741EF08005E490012CF02C
:10100600021B7E9000A6E0640170117F41123CBB7A
:101016007BFF7A2579B9123C880216CC30B30302DD
:1010260016CC1236679000EEE06406700C900061F4
:10103600E0640170049000A6F09000F1E0644F6057
:101046000302149D9000A6F0900061E0640570789C
:101056003004047F3980027F3D123CBB7F50123C36
:10106600067F43123C067F3A123C06E4900154F098
:10107600900154E0FFC3940574809480501774EE79
:101086002FF582E43400F583E0FF123C069001540C
:10109600E004F080DB7BFF7A2579CC123C88E49073
:1010A6000154F0900154E0FFC3943C748094804056
:1010B600030216CC74EE2FF582E43400F583E4F0D7
:1010C600900154E004F080DB900061E0C39410745A
:1010D60080948050030214987BFF7A2579D8123CBD
:1010E60088123E36E4900154F0900061E0FF9001D2
:1010F60054E0FEC39F501774EE2EF582E43400F5DB
:1011060083E0FF123C06900154E004F080DB7F0D83
:10111600123C067F0A123C06123E369000F1E0644D
:101126004F60030213669000F3E0FFA3E0FD123E5A
:10113600297E00900020EEF0A3EFF012000390004D
:1011460020E4F0A3EFF09000F5E0FFA3E0FD123EEF
:10115600297E0090001CEEF0A3EFF0120003900031
:101166001CE4F0A3EFF09000F7E0FFA3E0FD123ED1
:10117600297E0090002DEEF0A3EFF0120003900000
:101186002DE4F0A3EFF09000F9E0FFA3E0FD123E9E
:10119600297E00900030EEF0A3EFF01200039000DD
:1011A60030E4F0A3EFF09000FBE0FFA3E0FD123E79
:1011B600297E0090001EEEF0A3EFF01200037E00E1
:1011C60090001EEEF0A3EFF0FD90012DE0440F908D
:1011D600005AF0900020A3E090005CF090001CA361
:1011E600E090005DF090002DA3E090005EF090008E
:1011F60030A3E090005FF0A3EDF07BFF7A26790E36
:10120600123C88123E36E4900154F0900154E0FFFF
:10121600C39410748094805030E0FE2451F582E42B
:101226003400F583E0FD74DB2EF582E43400F583AB
:10123600EDF074DB2FF582E43400F583E0FF123C19
:101246004A900154E004F080C27F0D123C067F0AEA
:10125600123C06123E36E4900154F0900154E0C36D
:101266009410748094805021E0FF2451F582E43478
:1012760000F583E0FE74092FF582E43400F583EE71
:10128600F0900154E004F080D29000037401F0A3C2
:1012960074F4F0900041E06410601D7BFF7A2679BB
:1012A6001C123C8890012B7402F0123D1BC2209048
:1012B600012C742EF00216CC7BFF7A26793D123C67
:1012C600889000417401F0E4900154F0900154E0DC
:1012D600FFC39410748094805030E0FE2441F58260
:1012E600E43400F583E0FD74DB2EF582E43400F58A
:1012F60083EDF074DB2FF582E43400F583E0FF1212
:101306003C4A900154E004F080C27F0D123C067FF7
:101316000A123C06123E36E4900154F0900154E065
:10132600C39410748094805021E0FF2441F582E438
:101336003400F583E0FE74092FF582E43400F5836A
:10134600EEF0900154E004F080D2E49000A6F09014
:10135600012B04F0123D1BC22090012C7436F022A2
:101366009000F1E0644D600302148B9000F3E0FFFF
:10137600A3E0FD123E297E00900020EEF0A3EFF0E0
:10138600120003900020E4F0A3EFF09000F5E0FFD8
:10139600A3E0FD123E297E0090001CEEF0A3EFF0C4
:1013A60012000390001CE4F0A3EFF09000F7E0FFBA
:1013B600A3E0FD123E297E0090002DEEF0A3EFF093
:1013C6001200037E0090002DEEF0A3EFF0900020B7
:1013D600A3E0900049F090001CA3E090004AF0A31F
:1013E600EFF0123E367BFF7A26796B123C88E4904A
:1013F6000154F0900154E0FFC3941074809480501F
:1014060030E0FE2441F582E43400F583E0FD74DB30
:101416002EF582E43400F583EDF074DB2FF582E4DB
:101426003400F583E0FF123C4A900154E004F0805A
:10143600C27F0D123C067F0A123C06123E36E4902D
:101446000154F0900154E0C39410748094805021AC
:10145600E0FF2441F582E43400F583E0FE74092FB1
:10146600F582E43400F583EEF0900154E004F08058
:10147600D290012B7401F0123D1BC22090012C74F6
:1014860033F00216CC3004057F390216C97F3D02BF
:1014960016C97F3C0216C99000F1E0644D60030254
:1014A60015D6A3E0643A60030215D69000A6F09024
:1014B60000F3E0FFA3E0FD123E297E00900020EE3F
:1014C600F0A3EFF0120003900020E4F0A3EFF090F9
:1014D60000F5E0FFA3E0FD123E297E0090001CEE21
:1014E600F0A3EFF012000390001CE4F0A3EFF090DD
:1014F60000F7E0FFA3E0FD123E297E0090002DEEEE
:10150600F0A3EFF01200037E0090002DEEF0A3EFA3
:10151600F0900020A3E0900049F090001CA3E0901A
:10152600004AF0A3EFF0123E367BFF7A267990123E
:101536003C88E4900154F0900154E0FFC394107489
:101546008094805030E0FE2441F582E43400F58337
:10155600E0FD74DB2EF582E43400F583EDF074DBF8
:101566002FF582E43400F583E0FF123C4A900154E3
:10157600E004F080C27F0D123C067F0A123C061280
:101586003E36E4900154F0900154E0C39410748008
:1015960094805021E0FF2441F582E43400F583E095
:1015A600FE74092FF582E43400F583EEF0900154C1
:1015B600E004F080D2123D1BC22090012C7433F05F
:1015C600E4900063F0900003F0A3740AF00216CCD6
:1015D6009000F1E0FFB46F0BE49000A6F0C20EC2DB
:1015E600048017EF644570219000A6F0C20EC20475
:1015F600C297C206C208C209C20AC20FC216C221D7
:10160600C222C20CC21E0216CCEFB4460AD212E4A3
:101616009000A6F00216CCEFB43F13E49000A6F0BB
:10162600123D1B90012C740FF0D21A0216CC9000BA
:10163600F1E0645560030216CC9000F3E0640360A9
:10164600030216CC9000A6F09000F2E0FF7E00C3E5
:101656009436748094804069D3EF94397480948072
:10166600505FE49000F1F0A3E024D09000DBF0900E
:10167600012EE09000DCF0E4A3F0900005E090007D
:10168600DEF0E4A3F09001547405F0900154E0FFFD
:10169600C3941074809480501474DB2FF582E43464
:1016A60000F583E4F0900154E004F080DE90012B15
:1016B6007401F0FF12380390012C7410F0D21580DB
:1016C600057F3B123CBB900003E07004A3E064017D
:1016D60022900003E07004A3E0640160062020036A
:1016E60002241A302056C220900079E0B45919D24B
:1016F600159000367404F090012B7401F0FF123837
:101706000390012C7410F022807B900003E070049B
:10171600A3E06401600620200302241A30201DC2C3
:1017260020900079E0B45912D2159000367404F076
:10173600123A4C90012C7420F0228049805090007F
:1017460003E07004A3E06401600620200302241A6B
:1017560030203BC220900079E0B459297BFF7A26DD
:1017660079B7123C889000367404F090012B74010E
:10177600F0FF123803900003E4F0A37464F09001C4
:101786002C7437F0227F061237857F4080077F0250
:101796001237857F33123CBBE4900036F02290006E
:1017A60003E07004A3E06401600620200302241A0B
:1017B600202003021860900079E06459703390018C
:1017C6002C740CF0E4900063F090000304F0A37412
:1017D600F4F0201A03021874C21A9000EE7402F094
:1017E600A37430F0A37406F0A3743FF0A3740680CC
:1017F600337F061237857F40123CBBE4900036F0FB
:10180600900063F0900003F0A37464F09000EE740F
:1018160002301A1CF0A37430F0A37406F0A37465AA
:10182600F0A37440F0A37403F07F0612331A803ECF
:10183600F0A37430F0A37405F0A37458F0A37403F6
:10184600F07F0512331AC212C20EC204C20FC216AC
:10185600C221C222C20CC21E801490012C740CF04C
:10186600E4900063F090000304F0A374F4F0C22047
:1018760022900003E07004A3E064016006202003C8
:1018860002241A30203590007AE0B4592EC2207B0B
:10189600FF7A2679D5123C8890012B7402F0FF124C
:1018A600380390012C7410F0D215C220E490006326
:1018B600F0900003F0A37464F0801190012B740281
:1018C600F0E4FF12378590012C7425F0021B7E9000
:1018D6000003E07004A3E0640160062020030224F4
:1018E6001A202003021A0790007BE0645960030265
:1018F6001A07C2207BFF7A2679E3123C887F5212B0
:101906003C067F44123C067F3A123C06E4900154A2
:10191600F0900154E0FFC3941074809480501774C3
:101926007C2FF582E43400F583E0FF123C4A9001F7
:1019360054E004F080DB7F0D123C067F0A123C0661
:10194600D21FE4900154F0900154E0C394107480C7
:101956009480502BE0FF247CF582E43400F583E08C
:10196600FE74DB2FF582E43400F583E06E600890A8
:1019760001547410F0C21F900154E004F080C83086
:101986001F5E7BFF3015157A2679F3123C887F3E61
:10199600123CBBE4900036F0C21580117A27790418
:1019A600123C887F3D123CBBE4900036F07BFF7A08
:1019B600277912123C88E4900154F0900154E0FF1C
:1019C600C3943C74809480400302241A74EE2FF56D
:1019D60082E43400F583E4F0900154E004F080DB07
:1019E6007BFF7A277922123C8890012C7425F0E43B
:1019F600900063F0900003F0A37414F0C220021D5F
:101A0600C730200D90007BE0B44E06C2207F0180D7
:101A1600052020057F02123785C22090012C7425EF
:101A2600F0021DC7900003E07004A3E064016006A5
:101A360020200302241A202003021AFE90007BE0D5
:101A460064596003021AFEC2207BFF7A277930129E
:101A56003C88123E36E4900154F0900154E0FFC3F6
:101A66009410748094805030E0FE2451F582E43462
:101A760000F583E0FD74DB2EF582E43400F583ED9A
:101A8600F074DB2FF582E43400F583E0FF123C4A64
:101A9600900154E004F080C27F0D123C067F0A12CA
:101AA6003C06E4900154F0900154E0C39410748015
:101AB60094805021E0FF2451F582E43400F583E060
:101AC600FE74092FF582E43400F583EEF09001549C
:101AD600E004F080D2123E3690012B7402F0123DE3
:101AE6001BC22090012C742EF0E4900063F090004D
:101AF60003F0A37414F0802330200D90007BE0B433
:101B06004E06C2207F0180052020057F0212378500
:101B1600123A4CC22090012C7438F0021DC7900076
:101B260003E07004A3E06401600302241A90003607
:101B3600E06003123BC0C22090012C7426F0E490B2
:101B46000063F0900003F0A37405F022900003E018
:101B56007004A3E06401600302241A900036E0607A
:101B66000D14F0123D1B90012C7434F0800A7F0591
:101B76001237857F33123CBBC220021DC79000037B
:101B8600E07004A3E06401600620200302241A30FA
:101B9600201B900079E0B459147BFF7A27794A120A
:101BA6003C88123A4C90012C7427F0800F7F061265
:101BB60037857F40123CBBE4900036F0C220021D00
:101BC600C7900003E07004A3E064016006202003D0
:101BD60002241A30201B90007AE0B4591490012B8D
:101BE600E0FF12380390012C7410F0D215C2208049
:101BF6000F7BFF7A27796A123C8890012C7425F0B6
:101C0600C220021DC7900003E07004A3E0640160D7
:101C16000620200302241A30201B900079E0B459D4
:101C2600147BFF7A24791B123C88123CEC90012C21
:101C36007435F0800F7F061237857F40123CBBE477
:101C4600900036F0C220021DC7202003021D6BC281
:101C560020900079E064596003021D5EA3E09001C4
:101C660031F090007BE0900132F090007CE0900132
:101C760033F090007DE0900134F07BFF7A27797590
:101C8600123C8890007AE0FF123AE49000ECE0FF04
:101C9600123C06900130E0FF123C067F20123C0603
:101CA60090007BE0FF123AE49000ECE0FF123C0665
:101CB600900130E0FF123C067F20123C0690007C2B
:101CC600E0FF123AE49000ECE0FF123C069001308F
:101CD600E0FF123C067F20123C0690007DE0FF12DA
:101CE6003AE49000ECE0FF123C06900130E0FF126F
:101CF6003C067F20123C067F0D123C067F0A123CF2
:101D060006900131E0FF900022E06F703E900132B4
:101D1600E0FF90002FE06F7032900133E0FF9000FB
:101D260032E0B50726900134E0FF900034E07E00F3
:101D3600B507047F0180027F00EF64014E700C122C
:101D46003D1B90012C742DF0C220227BFF7A27794F
:101D560085123C887F3F80277BFF7A24792A123CB4
:101D6600887F3F801A900003E07004A3E06401605E
:101D76000302241A7BFF7A247937123C887F3202C9
:101D86003CBB900003E07004A3E0640160062020E1
:101D96000302241A30201990007AE0B459129001F7
:101DA6002BE0FF12380390012C7437F0C220800F0D
:101DB6007BFF7A27796A123C8890012C7438F0C22E
:101DC60020E4900063F0900003022262900003E09A
:101DD6007004A3E06401600620200302241A7BFF3E
:101DE6007A2779A1123C88900019E0FF6445606368
:101DF600EFB44402805DC220A2059287D2239001EF
:101E06002C743BF09000637406F09000037404F0A9
:101E1600A374B0F0E4900019F022900003E070047F
:101E2600A3E06401600620200302241A30203A7BD6
:101E3600FF7A2779C9123C887BFF7A2779DE123C24
:101E4600887B017A007974123C887BFF7A24798238
:101E5600123C8890012C743CF09000637406F0905C
:101E66000003E4F0A37403F022900136E0640570E9
:101E76001B7BFF7A287904123C88E4900136F0D265
:101E8600ACC223A2139287C22002229B900136E0A5
:101E960004F0D2ACD223A2059287C220E4900019A6
:101EA600F090012C743BF0900063740602240F90AE
:101EB6000003E07004A3E06401600620200302240E
:101EC6001AC2AC7BFF7A287927123C889000EE7400
:101ED60002F0A37430F0A3744CF0A37451F0E4A3A1
:101EE600F09000617404F0123E367BFF7A28793B4D
:101EF600123C88900019E0FF123C067BFF7A247999
:101F060082123C88123E367B017A007974123D7546
:101F1600900155EFF07E002474F9EE3400FA7B014F
:101F26007D3E123E04900156EFF090015D74FFF085
:101F3600A37428F0A3745BF07B017A0079741234E1
:101F46007D900157EBF0A3EAF0A3E9F04A90013542
:101F560060057443F08003744DF07BFF7A28796145
:101F6600123C88900135E0FF123C067BFF7A24790B
:101F760082123C887BFF7A287974123C889001553E
:101F8600E0FF123C4A7BFF7A247982123C887BFF71
:101F96007A28798B123C88900156E0FF123C4A7BE6
:101FA600FF7A247982123C88E4900137F09001553B
:101FB600E0FF640C600302223AFE74742FF9EE34DB
:101FC60000FA90015D7401F0A3EAF0A3E9F0900134
:101FD60056E0FF900160EEF0A3EFF07B017A017905
:101FE600371238EC900156E02437F582E43401F5D7
:101FF60083E4F07B017A017937123DEF900061EFBF
:10200600F090015D7401F0A37401F0A37437F0A39E
:10201600E4F0A3EFF07B017A0079EE1233B8900179
:102026005D74FFF0A37428F0A374A1F07B017A001D
:1020360079EE1238817BFF7A2879A3123C887B01DE
:102046007A017937123C887BFF7A247982123C88A0
:1020560090015D74FFF0A37428F0A374B7F07B01C0
:102066007A00797412347D900157EBF0A3EAF0A35D
:10207600E9F0900157E0FBA3E0FAA3E02407F9E4B6
:102086003AFA90015DEBF0A3EAF0A3E9F0A3E4F0DD
:10209600A37410F07B017A0179411238EC7BFF7A48
:1020A6002879BE123C887B017A017941123C887BF3
:1020B600FF7A247982123C8890015D7401F0A37442
:1020C60001F0A37443F0A3E4F0A37402F07B017A59
:1020D6000079EE1233B890015D7401F0A37401F03B
:1020E600A37446F0A3E4F0A37402F07B017A0079AE
:1020F600EE1233B890015D7401F0A37401F0A3747D
:1021060049F0A3E4F0A37402F07B017A0079EE12A1
:1021160033B890015D7401F0A37401F0A3744CF020
:10212600A3E4F0A37402F07B017A0079EE1233B8CF
:1021360090015D7401F0A37401F0A3744FF0A3E461
:10214600F0A37402F07B017A0079EE1233B89001A5
:102156005D74FFF0A37428F0A374A1F07B017A00EC
:1021660079EE123881900135E090015DB4430C742C
:10217600FFF0A37428F0A374D1800A74FFF0A3744F
:1021860028F0A374D3F07B017A0079EE123881909F
:10219600015D74FFF0A37428F0A374D5F07B017A77
:1021A6000079EE12388190015D74FFF0A37428F077
:1021B600A374D9F07B017A0079EE1238817B017A1B
:1021C6000079EE123DEF900061EFF0E0FF24EEF5AE
:1021D60082E43400F5837403F0EF049000F0F07BA2
:1021E600FF7A2879E8123C887B017A0079EE900024
:1021F60061E004FD123B2E900061E004FF12331AE9
:10220600301909900061E004FF12331A9000A67499
:1022160048F0D2ACD223A2059287E4900019F0C20E
:102226002090012C743DF09000637406F09000033A
:10223600E40223E97BFF7A2879FE123C88D2ACA21D
:10224600059287E4900019F0D223C22090012C74E5
:102256003BF09000637406F0900003E4F0A374640E
:10226600F0229000A6E0640170607BFF7A29792154
:10227600123C88900136E0640570287BFF7A297944
:1022860030123C88E49000A6F0C223A21392871273
:102296003D1BC220E490012CF0900063F0900003F7
:1022A6000223E9900136E004F0E49000A6F0D2ACF7
:1022B600D223A2059287C220900019F090012C74B7
:1022C6003BF0900063740602240F30B30302241A15
:1022D6001236679000EEE06406700C900061E064D0
:1022E6000170049000A6F09000F1E0644F600302D4
:1022F600241A9000A6F0900061E06405705F7BFFF1
:102306007A297946123C887F50123C067F43123C5C
:10231600067F3A123C06E4900154F0900154E0FF27
:10232600C3940574809480501774EE2FF582E434BC
:1023360000F583E0FF123C06900154E004F080DBD8
:10234600E49000A6F0D2ACD223A2059287C22090D8
:10235600012C743BF0900063740602240F90006118
:10236600E0C3941074809480500302241A7BFF7A91
:10237600297968123C88123E36E4900154F09000A8
:1023860061E0FF900154E0FEC39F501774EE2EF5F6
:1023960082E43400F583E0FF123C06900154E00429
:1023A600F080DB7F0D123C067F0A123C06123E3699
:1023B600900136E0640570317BFF7A297996123CEC
:1023C60088E4900136F09000A6F0C223A21392870B
:1023D600123D1BC22090012C7403F0E4900063F0C0
:1023E600900003F0A37414F022900136E004F0E4A8
:1023F6009000A6F0D2ACD223A2059287C22090010B
:102406002C743BF09000637406F09000037404F0A3
:04241600A374B0F00B
:01241A00229F
:030000000236F9CC
:0C36F900787FE4F6D8FD7581240237408C
:1031EA00BB010689828A83E0225002E722BBFE02E3
:0931FA00E32289828A83E4932216
:10320300BB010CE58229F582E5833AF583E0225080
:1032130006E92582F8E622BBFE06E92582F8E222CA
:0D322300E58229F582E5833AF583E49322E4
:10323000C5F0F8A3E028F0C5F0F8E5821582700229
:063240001583E038F022C6
:0C324600ECF0A3EDF0A3EEF0A3EFF022FB
:10325200A8828583F0D083D0821232691232691239
:103262003269123269E473E493A3C583C5F0C5835E
:10327200C8C582C8F0A3C583C5F0C583C8C582C8C6
:013282002229
:10328300D083D082F8E4937012740193700DA3A3DA
:1032930093F8740193F5828883E4737402936860EE
:0632A300EFA3A3A380DFEE
:1038810090015AEBF0A3EAF0A3E9F0900160EBF0AC
:10389100A3EAF0A3E9F090015AE0FBA3E475F0017B
:1038A1001232DDA9F0FA1231EA70EB90015B74FF7C
:1038B100F5F012323090015DE0FBA3E475F00112E6
:1038C10032DDA9F0FA1231EAFF90015AE0FBA3E4DC
:1038D10075F0011232DDA9F0FAEF1232A970D6901B
:0B38E1000160E0FBA3E0FAA3E0F92285
:1033B80090015AEBF0A3EAF0A3E9F0E4900162F07F
:1033C800A3F0D3900161E09400900160E0648094E0
:1033D80080500302347190015AE0FBA3E0FAA3E0A5
:1033E800F9900162E0FEA3E0F5828E831232036059
:1033F80010900163E004F070DD900162E004F08059
:10340800D590015DE0FBA3E0FAA3E0F91231EA6090
:103418003E90015DA3E475F0011232DDA9F0FA12C5
:1034280031EAFF90015AE0FBA3E0FAA3E0F990012A
:1034380062E475F0011232DD85F082F583EF123215
:10344800BB90016074FFF5F012323045F070B29015
:10345800015AE0FBA3E0FAA3E0F9900162E0FEA3C1
:10346800E0F5828E83E41232BB90015AE0FBA3E0C0
:05347800FAA3E0F922B7
:1038EC0090015AEBF0A3EAF0A3E9F0E4900162F046
:1038FC00A3F090016074FFF5F01232DD45F0603CEE
:10390C0090015DE0FBA3E0FAA3E0F91231EAFF902D
:10391C00015AE0FBA3E0FAA3E0F9900162E475F030
:10392C00011232DD85F082F583EF1232BBEF60C2FB
:10393C0090015EE475F00112323080B690015AE0CD
:08394C00FBA3E0FAA3E0F9225D
:103DEF00E4FFFE1231EA600C0FEF70010E09E9706B
:053DFF00F20A80EF2232
:10347D0090015AEBF0A3EAF0A3E9F0A3E0FBA3E07F
:10348D00FAA3E0F91231EA700302352990015AE0EE
:10349D00FBA3E0FAA3E0F91231EA7003023535908F
:1034AD00015DE0F9A3E0FAA3E0A3C9F0A3EAF0A35C
:1034BD00E9F090015AA3E0FAA3E0F9900163EBF073
:1034CD00A3EAF0A3E9F0900160E0FBA3E0FAA3E02A
:1034DD00F91231EAFF6026900163E0FBA3E0FAA345
:1034ED00E0F91231EA6F701590016175F001123239
:1034FD0030900164E475F00112323080C9900160A2
:10350D00E0FBA3E0FAA3E0F91231EA7002800D901E
:10351D00015BE475F00112323002349990015AE0EA
:0F352D00FBA3E0FAA3E0F9227B007A00790022E9
:103705000229B7E493A3F8E493A34003F68001F2FA
:1037150008DFF48029E493A3F85407240CC8C333C5
:10372500C4540F4420C8834004F456800146F6DF94
:10373500E4800B01020408102040809035D4E47E1B
:10374500019360BCA3FF543F30E509541FFEE49389
:10375500A360010ECF54C025E060A840B8E493A350
:10376500FAE493A3F8E493A3C8C582C8CAC583CA7B
:10377500F0A3C8C582C8CAC583CADFE9DEE780BE33
:013666000063
:1032A900BB010689828A83F0225002F722BBFE0104
:0232B900F322FE
:1032BB00F8BB010DE58229F582E5833AF583E8F049
:1032CB00225006E92582C8F622BBFE05E92582C8F5
:0232DB00F222DD
:1032DD00A3F8E0C5F025F0F0E582158270021583A4
:0632ED00E0C838F0E82201
:00000001FF
